:020000040800F2
:100000000000022015FA0208D1110008D3110008DF
:10001000D5110008D7110008D91100080000000010
:10002000000000000000000000000000DB110008DC
:10003000DD11000800000000DF110008E1110008D8
:1000400065FA020865FA020865FA020865FA02080C
:1000500065FA020865FA0208EF11000865FA02085D
:1000600065FA020865FA020865FA020865FA0208EC
:1000700065FA020865FA020865FA020865FA0208DC
:1000800065FA020865FA020865FA020865FA0208CC
:1000900065FA020865FA020865FA020865FA0208BC
:1000A00065FA020865FA020865FA020865FA0208AC
:1000B00065FA020865FA020865FA020865FA02089C
:1000C00065FA020865FA020865FA020865FA02088C
:1000D00065FA020865FA020865FA020865FA02087C
:1000E00065FA020865FA020865FA020865FA02086C
:1000F00065FA020865FA020865FA020865FA02085C
:1001000065FA020865FA020865FA020865FA02084B
:1001100065FA020865FA020865FA020865FA02083B
:1001200065FA020865FA020865FA020865FA02082B
:1001300065FA020865FA020865FA020865FA02081B
:1001400065FA020865FA020865FA0208F911000862
:1001500065FA020865FA020865FA020865FA0208FB
:1001600065FA020865FA020865FA020865FA0208EB
:1001700065FA020865FA020865FA02080000000044
:0801800065FA020865FA0208A5
:1001900010B5054C237833B9044B13B10448AFF3C1
:1001A00000800123237010BD8404002000000000A3
:1001B0000C0B030808B5034B1BB103490348AFF30D
:1001C000008008BD00000000880400200C0B03081C
:1001D00010F8012B11F8013B012A28BF9A42F7D0F1
:1001E000D01A7047034613F8012B002AFBD1181AC6
:1001F000013870470000000000000000000000000F
:1002000001F0FF01102A2BDB10F0070F08D010F8C7
:10021000013B013A8B422DD010F0070F42B3F6D1CB
:10022000F0B441EA012141EA014122F007047FF0E4
:1002300000070023F0E80256083C85EA010586EA3B
:10024000010685FA47F5A3FA87F586FA47F6A5FA77
:1002500087F68EB9EED1F0BC01F0FF0102F0070283
:1002600032B110F8013B013A83EA010313B1F8D12E
:100270000020704701387047002D06BF354603380F
:10028000073815F0010F07D1013015F4807F02BF48
:10029000013015F4C03F0130F0BC0138704700BF99
:1002A00053B94AB9002908BF00281CBF4FF0FF31DD
:1002B0004FF0FF3000F074B9ADF1080C6DE904CED9
:1002C00000F006F8DDF804E0DDE9022304B0704731
:1002D0002DE9F047089D04468E46002B4DD18A42F9
:1002E000944669D9B2FA82F252B101FA02F3C2F12C
:1002F000200120FA01F10CFA02FC41EA030E9440BD
:100300004FEA1C48210CBEFBF8F61FFA8CF708FBDD
:1003100016E341EA034306FB07F199420AD91CEBB5
:10032000030306F1FF3080F01F81994240F21C81E7
:10033000023E63445B1AA4B2B3FBF8F008FB10332F
:1003400044EA034400FB07F7A7420AD91CEB040464
:1003500000F1FF3380F00A81A74240F20781644434
:10036000023840EA0640E41B00261DB1D4400023B9
:10037000C5E900433146BDE8F0878B4209D9002D1D
:1003800000F0EF800026C5E9000130463146BDE8A7
:10039000F087B3FA83F6002E4AD18B4202D3824211
:1003A00000F2F980841A61EB030301209E46002DC0
:1003B000E0D0C5E9004EDDE702B9FFDEB2FA82F215
:1003C000002A40F09280A1EB0C014FEA1C471FFA73
:1003D0008CFE0126200CB1FBF7F307FB131140EA5A
:1003E00001410EFB03F0884208D91CEB010103F127
:1003F000FF3802D2884200F2CB804346091AA4B2E9
:10040000B1FBF7F007FB101144EA01440EFB00FEBC
:10041000A64508D91CEB040400F1FF3102D2A64521
:1004200000F2BB800846A4EB0E0440EA03409CE7C0
:10043000C6F12007B34022FA07FC4CEA030C20FA6D
:1004400007F401FA06F31C43F9404FEA1C4900FA8D
:1004500006F3B1FBF9F8200C1FFA8CFE09FB18110A
:1004600040EA014108FB0EF0884202FA06F20BD97D
:100470001CEB010108F1FF3A80F08880884240F2CD
:100480008580A8F102086144091AA4B2B1FBF9F011
:1004900009FB101144EA014100FB0EFE8E4508D90C
:1004A0001CEB010100F1FF346CD28E456AD9023891
:1004B000614440EA0840A0FB0294A1EB0E01A14276
:1004C000C846A64656D353D05DB1B3EB080261EBE4
:1004D0000E0101FA07F722FA06F3F1401F43C5E9BE
:1004E000007100263146BDE8F087C2F12003D840F4
:1004F0000CFA02FC21FA03F3914001434FEA1C4736
:100500001FFA8CFEB3FBF7F007FB10360B0C43EA27
:10051000064300FB0EF69E4204FA02F408D91CEBD7
:10052000030300F1FF382FD29E422DD902386344D5
:100530009B1B89B2B3FBF7F607FB163341EA034175
:1005400006FB0EF38B4208D91CEB010106F1FF38C4
:1005500016D28B4214D9023E6144C91A46EA0046BB
:1005600038E72E46284605E70646E3E61846F8E64D
:100570004B45A9D2B9EB020864EB0C0E0138A3E796
:100580004646EAE7204694E74046D1E7D0467BE777
:10059000023B614432E7304609E76444023842E7EF
:1005A000704700BF08B50C4B1B78012B02D000230D
:1005B0008B7308BD094AB2F900300B80B2F90220F2
:1005C0004A8001208873194605482FF03DFB024BF5
:1005D00000221A70EDE700BFF99A0020A09A0020CF
:1005E000A40B0308012800D0704708B503482FF07A
:1005F000B1FB034B01221A7008BD00BFB80B030802
:10060000F99A002008B5431E012B05D8084611466B
:1006100000F042FFC0B208BD024B09221A604FF041
:10062000FF30F8E7683A012072B6FEE700B599B0EE
:10063000302200210DEB02002FF058FA002307931F
:10064000089309930A930B930393049305930693DA
:100650000193284A116C41F080511164126C02F030
:1006600080520192019A0293234B1A6842F480420D
:100670001A601B6803F480430293029B0D230C93C2
:100680004FF480330D9301230E93119302231293A1
:100690004FF480021392192214924FF4A87215920B
:1006A0001693072317930CA801F05EF8E0B90F2307
:1006B000079302230893002309934FF4A0530A934E
:1006C0004FF480530B93052107A801F09BFA68B9FA
:1006D000022303934FF48073069303A801F058FBA1
:1006E00030B919B05DF804FBFFF79EFFFFF79CFFE0
:1006F000FFF79AFF003802400070004010B58EB03E
:1007000001F022FEFFF792FF00F0B8FB00F082FC40
:1007100007F0F6FA00F0B8F800F0B6FC214B93E8C9
:10072000070000F0B7FA204C4FF496531F4A2049B7
:1007300020461FF084FF68461FF05FFF01941D4BA9
:1007400003934FF4F073ADF800304FF48873ADF8B5
:10075000023068461FF080FF174C204620F061F8F9
:10076000164B636001232370204620F06FF82FF0B2
:100770004DF800F091FD01F00DFE044622F004FB5F
:100780000F49104800F02CFB01F004FE031BB3F5E9
:100790007A7FF3D30C482FF0DDFA01F0FBFD04461D
:1007A000ECE700BF00000020B49A0020A04F00201A
:1007B000A0040020130A0008D89A0020A50500080C
:1007C000F89A0020A09A0020CC0B0308C1F307423E
:1007D000C1F30723C9B248B1D2089B08580140EAC7
:1007E000C22000B240EAD10080B27047C908980820
:1007F000400140EAC12000B240EAD20080B2704716
:100800004FF0C04318807047002303B17047024A7D
:1008100010800133DBB2F8E700000260F8B505464E
:100820000F4614461E462A20FFF7EAFF380AFFF754
:10083000EBFFF8B2FFF7E8FF300AFFF7E5FFF0B291
:10084000FFF7E2FF2B20FFF7DBFF280AFFF7DCFFB3
:10085000E8B2FFF7D9FF200AFFF7D6FFE0B2FFF7B3
:10086000D3FF2C20FFF7CCFFF8BD10B50446BE2007
:10087000FFF7C6FF0620FFF7C7FF2046FFF7C4FFBC
:100880000120FFF7C1FF10BD08B50120FFF7B8FF39
:100890002920FFF7B5FFE220FFF7B2FF1D20FFF789
:1008A000B3FF0220FFF7B0FF0420FFF7ADFFE02009
:1008B000FFF7A6FF0120FFF7A7FF782001F070FDEA
:1008C000E020FFF79DFF0320FFF79EFF782001F057
:1008D00067FD0120FFF794FF782001F061FDE6201D
:1008E000FFF78EFF0120FFF78FFFEB20FFF78CFF54
:1008F0008420FFF789FFB020FFF782FF2020FFF759
:1009000083FF2020FFF780FF0120FFF77DFFDF201E
:10091000FFF77AFF0120FFF777FF0F20FFF774FF43
:100920002D20FFF771FFB420FFF76AFF0220FFF7C9
:100930006BFF1320FFF768FF0020FFF765FF08201B
:10094000FFF762FF2B20FFF75FFF0020FFF75CFF40
:100950000220FFF759FF0020FFF756FFB620FFF7F0
:100960004FFF0120FFF750FF2020FFF74DFF002031
:10097000FFF74AFF0420FFF747FF0C20FFF744FF73
:100980000020FFF741FF0220FFF73EFFB820FFF7EE
:1009900037FF0F20FFF738FF0120FFF735FFBA20A0
:1009A000FFF72EFF0120FFF72FFFBA20FFF728FFE8
:1009B0000320FFF729FFBE20FFF722FF0620FFF7E5
:1009C00023FFFF20FFF720FF0120FFF71DFF362048
:1009D000FFF716FFBC20FFF713FF4020FFF714FFBF
:1009E0008020FFF711FF4020FFF70EFF0120FFF7E7
:1009F0000BFF0320FFF708FFF020FFF701FF0320A4
:100A0000FFF702FFFF20FFF730FF2920FFF7F8FE76
:100A100008BDF8B507460C461646B1F90200B1F913
:100A20000010B4F90620B4F904309BB292B289B236
:100A300080B2FFF7F3FEB4F90450B4F90030EB1ABA
:100A4000B4F90650B4F90220AD1A013503FB05557F
:100A5000002407E056F824100120FFF7B7FEFFF747
:100A6000D3FE0134AC42F5D338461FF0C2FEF8BDC8
:100A700000230B4A82F8B83008E0094AD15C92F8AA
:100A8000B800014482F8B8100133DBB2B72BF4D9B7
:100A9000034A92F8B8305B4282F8B830704700BF22
:100AA0000C00002000B587B000230193029303934C
:100AB000049305930123019301A9034801F012FA5D
:100AC00007B05DF804FB00BF0010024000B587B01E
:100AD000002301930293039304930593012301934D
:100AE000029301A9024801F0FDF907B05DF804FB8B
:100AF0000010024008B528B101220221044801F08B
:100B00007DFB08BD00220221014801F077FBF8E7D8
:100B10000010024008B528B101221146044801F036
:100B20006DFB08BD00220121014801F067FBF8E7D9
:100B30000010024008B501F033FC08BD08B5FFF70E
:100B4000B1FF0020FFF7D6FF1420FFF7F3FF0020CE
:100B5000FFF7E0FF3220FFF7EDFF0120FFF7CAFFAC
:100B60006420FFF7E7FFFFF7B1FF6420FFF7E2FF24
:100B700008BD000000B583B0134640004FF0FF32BF
:100B800000920A4600F0FE01094803F0E7FA012846
:100B900001D003D850B903B05DF804FB0238C0B2ED
:100BA000012801D80220F6E70120F4E70120F2E74E
:100BB000E09C002010B5FFF75BFF084C80232370FA
:100BC00047236370BA220649A01C2EF081FFBC2285
:100BD00021461420FFF7CEFF10BD00BFC49B0020AC
:100BE0000C00002008B5054980230B7040234B7092
:100BF000887003221420FFF7BDFF08BDC49B0020AE
:100C000008B5054981230B704E234B708870032271
:100C10001420FFF7AFFF08BDC49B002000B583B0D0
:100C2000134640004FF0FF3200920A4600F0FE01EA
:100C3000094803F04FFB012801D003D850B903B095
:100C40005DF804FB0238C0B2012801D80220F6E7A3
:100C50000120F4E70120F2E7E09C002010B50446F3
:100C60000A4981230B7040234B7002221420FFF7A6
:100C700081FF00B110BD042205491420FFF7CEFF0B
:100C80000028F7D1024B1B682360F3E7C49B0020C8
:100C9000FC9A002070B58CB001AB83E807000024FB
:100CA0000794089409940A940B940594384B1A6B92
:100CB00042F010021A631B6B03F010030593059BAF
:100CC00022460321334801F099FA052307930123B3
:100CD000089309940A9407A92F4801F003F9BDF875
:100CE00004302E4A53701B0A9370BDF80630D3703F
:100CF0001B0A13719DF80830537194719DF80A30E6
:100D0000DB015BB293719DF8091043EA81135BB27A
:100D100093719DF80B1043EAC1035BB293719DF888
:100D20000C1043EA81039371FFF708FF069406A8AD
:100D3000FFF794FF04461A4B187028BB069B13B3A9
:100D4000FFF7FCFEFFF736FF0446154B1870D8B9C5
:100D50000020FFF747FF0F4E0121304601F0B4F9A4
:100D6000012307930F4B08930025099507A93046E7
:100D700001F0B8F82A462946062001F065FA062057
:100D800001F09AFA00E0022420460CB070BD00BFCA
:100D90000038024000100240000002400C00002019
:100DA000FA9A00200000111010B504460A49812368
:100DB0000B704E234B7002221420FFF7DBFE00B1B4
:100DC00010BD012205491420FFF728FF0028F7D1A4
:100DD000024B1B782370F3E7C49B0020FC9A002091
:100DE0002DE9F04182B006460F460DF10700FFF7EE
:100DF000DBFF804628B99DF807309DF90720002ABF
:100E000003DB404602B0BDE8F08103F00F033B7006
:100E100073BB0020FFF7F4FEF3E704F581530A33B8
:100E200043F3571313490B7004F12A03DB004B7093
:100E300002221420FFF79EFE0F4D062229461420A1
:100E4000FFF7ECFE06EB84022B7826F82430697855
:100E500003EB012326F82430AB785380E97803EBC9
:100E6000012353800134E4B23B78A342D5D8D0E7C4
:100E70000446F9E7C49B0020FC9A00202DE9F041CC
:100E80008CB000240794089409940A940B9401945C
:100E90003D4B1A6B42F010021A631A6B02F01002FB
:100EA0000192019A02941A6B42F004021A631A6BBF
:100EB00002F004020292029A03941A6B42F080023A
:100EC0001A631A6B02F080020392039A04941A6B5D
:100ED00042F001021A631A6B02F001020492049AB2
:100EE00005941A6B42F002021A631A6B02F00202B6
:100EF0000592059A06941A6B42F008021A631B6B5E
:100F000003F008030693069B204E224648F219017F
:100F1000304601F073F9DFF87C8022464FF44051EF
:100F2000404601F06BF91A4F22464FF48071384663
:100F300001F064F948F21903079301250895099413
:100F40000A9407A9304600F0CDFF60230793089468
:100F5000099407A9304600F0C5FF4FF440530793AA
:100F6000089509940A9407A9404600F0BBFF4FF486
:100F700080730793089509940A9407A9384600F0EE
:100F8000B1FF0CB0BDE8F081003802400000024023
:100F900000080240000C0240F0B587B00023019326
:100FA0000293039304930593164B1B680BB107B090
:100FB000F0BD144B01221A6000260096124B9A6B6A
:100FC00042F001029A639B6B03F001030093009BC4
:100FD0004FF68073019302270297032504950C2492
:100FE000059401A9094800F07DFF4CF6B373019305
:100FF000029703960495059401A9054800F072FF35
:10100000D5E700BF8C9C0020003802400010024051
:10101000000C024010B588B00022019202920392A7
:10102000049205920692079214484FF02043036001
:1010300003F5827343608260C260026110214161E6
:101040008261C261026242624FF480538362C26273
:1010500002634263826342640F2301930293FF247D
:101060000394049305911123069301A902F04EFD08
:1010700008B908B010BDFFF7D7FAFAE7909C002036
:1010800008B5FFF789FF08BD08B50B480B4B036097
:101090000B4B436000238360C3604FF480420261C6
:1010A00043618361C361036202F07AFF00B908BD46
:1010B000FFF7BAFAFBE700BFE09C002000540040B5
:1010C000A08601002DE9F0438BB000230593069321
:1010D0000793089309930368374A934205D0374A28
:1010E000934227D00BB0BDE8F08300250095344C27
:1010F000236B43F002032363236B03F0020300938B
:10110000009BC02305931223069301230793032317
:1011100008930423099305A92A4800F0E3FE0195EA
:10112000236C43F400132364236C03F40013019332
:10113000019BD7E700250295214C236B43F0040364
:101140002363236B03F004030293029B0395236B39
:1011500043F001032363236B03F001030393039B19
:101160004FF4007305934FF01209CDF818904FF02B
:101170000108CDF81C80032708970426099605A9C5
:10118000114800F0AFFE4FF480730593CDF818902E
:10119000CDF81C800897099605A90C4800F0A2FE1E
:1011A0000495236C43F400032364236C03F40003CD
:1011B0000493049B96E700BF00540040005C00408D
:1011C00000380240000402400008024000000240D3
:1011D000FEE7FEE7FEE7FEE7FEE770477047704771
:1011E00008B501F0CBF801201FF084FB08BD08B55D
:1011F000012001F009F808BD08B5024801F0A6FA7F
:1012000008BD00BF04B2002082B0002100910B4B4A
:101210005A6C42F480425A645A6C02F48042009242
:10122000009A01911A6C42F080521A641B6C03F010
:1012300080530193019B02B0704700BF0038024009
:1012400030B587B00024019402940394049405946B
:1012500000940F4B1A6B42F001021A631B6B03F0F0
:1012600001030093009B0B4D22464FF4004128469A
:1012700000F0C4FF4FF40043019301230293039451
:10128000049401A9284600F02DFE07B030BD00BF30
:10129000003802400000024008B5FFF7D1FF0022ED
:1012A0004FF40041164800F0A9FF0A2001F078F839
:1012B00000221449144803F08FF9A0B913491248C9
:1012C00003F0A1F990B912490F4804F030F880B941
:1012D0000D4803F0AFF978B901224FF400410848F6
:1012E00000F08CFF08BDFFF79FF9E7E7FFF79CF9D7
:1012F000E9E7FFF799F9EBE7FFF796F9ECE700BFAD
:1013000000000240C8000020349D00203801002069
:101310001801002012230B8000487047E4000020D1
:1013200004230B8000487047F800002000239342FC
:101330001ED200B510E00CF1370C01F813C000010B
:101340004FEA430C0CF1010C4FF0000E01F80CE0D9
:101350000133DBB2934209D24FEA107CB0F1204F47
:10136000E9D20CF1300C01F813C0E8E75DF804FB9A
:101370007047000038B50B4BD3F8100AD3F8144A65
:10138000D3F8183AC01800D138BD074D0822A91C5F
:10139000FFF7CCFF042205F112012046FFF7C6FF3C
:1013A000F2E700BF0070FF1FFC00002008B51A2301
:1013B0000B80FFF7DFFF014808BD00BFFC000020E5
:1013C00008B50A4628B90549054803F0D4FD034885
:1013D00008BD0249024803F0CEFDF8E704A0002052
:1013E000D80B030810B50A46034C2146034803F006
:1013F000C2FD204610BD00BF04A00020F00B030872
:1014000008B50A4628B90549054803F0B4FD034864
:1014100008BD0249024803F0AEFDF8E704A0002031
:10142000040C030808B50A4628B90549054803F025
:10143000A2FD034808BD0249024803F09CFDF8E7FD
:1014400004A00020100C0308002070470020704703
:101450000020704710B50146044C204603F079FF88
:10146000204603F099FF002010BD00BF349D0020EE
:1014700010B5064C00220649204603F05FFF0549DF
:10148000204603F066FF002010BD00BF349D002001
:1014900004AA002004A20020094BD3F8BC32D3F8E0
:1014A00014320BB10120704710B5054C0A460146B5
:1014B000204603F043FF204603F054FF10BD00BF59
:1014C000349D002030B589B0002303930493059325
:1014D000069307930368B3F1A04F01D009B030BD64
:1014E00000250195164C236B43F001032363236B06
:1014F00003F001030193019B4FF4C05303930223B4
:101500000493032306930A23079303A90D4800F0CD
:10151000E9FC636B43F0800363630295636C43F4FF
:1015200080436364636C03F480430293029B2A4606
:101530002946432000F088FE432000F0BDFECDE7A1
:10154000003802400000024008B500F57171D0F883
:10155000040403F084F808BD08B5C1EBC10300EB37
:101560008303D3F80822D0F8040403F0A4F808BDDC
:1015700008B5C1EBC10300EB83039A6CD0F80404F7
:1015800003F0D5F808BD08B5D0F8040403F075F9E8
:1015900008BD10B50446C3683BB1022B01D101213F
:1015A00004E0FFF741F8012100E00021D4F8040431
:1015B00003F049F9D4F8040403F018F910BD000051
:1015C00010B50446D0F8040403F040F92268D2F8BC
:1015D000003E43F00103C2F8003E236A23B1034AF0
:1015E000136943F00603136110BD00BF00ED00E076
:1015F00008B5D0F8040403F033F908BD08B5D0F8F5
:10160000040403F062F908BD08B5D0F8040403F03F
:1016100048F908BD08B5D0F8040403F06AF908BD1C
:1016200008B5D0F8040403F066F908BD02780AB1E1
:101630000020704710B503461548C0F80434C3F8BD
:10164000C4024FF0A0430360042343600222C2603F
:10165000002303618261C36103624362C362036367
:1016600000F01AFF80B90A4C8021204601F047FCA7
:1016700040220021204601F01CFC8022012120464E
:1016800001F017FC002010BDFEF7CEFFEBE700BF16
:1016900004B20020D0F8C43211F0800F08D101F05C
:1016A0007F01C1EBC10103EB810191F8FE0170479D
:1016B00001F07F01C1EBC10103EB810191F83E0014
:1016C000704708B5D0F8C40201F03CFB08BD032800
:1016D00005D8DFE800F0050402050120704703206B
:1016E000704708B5D0F8C40200F06DFFFFF7EFFFB8
:1016F00008BD08B594461A466346D0F8C40201F006
:1017000074FAFFF7E4FF08BD08B5D0F8C40201F091
:10171000B1FAFFF7DCFF08BD08B5D0F8C40201F04C
:1017200049FBFFF7D4FF08BD08B5D0F8C40201F0AB
:1017300085FBFFF7CCFF08BD08B5D0F8C40201F067
:1017400040FAFFF7C4FF08BD08B5D0F8C40201F0A5
:1017500002FBFFF7BCFF08BD08B5D0F8C40201F0DA
:10176000C2FAFFF7B4FF08BD002800F0E08170B5B1
:1017700082B00446036813F0010F3BD09F4B9B6877
:1017800003F00C03042B2CD09C4B9B6803F00C0340
:10179000082B21D06368B3F5803F4FD0B3F5A02F5D
:1017A00052D0964B1A6822F480321A601A6822F4DA
:1017B00080221A606368002B50D000F0EBFD0546D4
:1017C0008E4B1B6813F4003F14D100F0E3FD401B67
:1017D0006428F5D90320B1E1884B5B6813F4800FCE
:1017E000D8D0864B1B6813F4003F03D06368002BEE
:1017F00000F09F81236813F0020F54D07F4B9B6849
:1018000013F00C0F3ED07D4B9B6803F00C03082BAC
:1018100033D0E368002B68D0794B01221A6000F0C6
:10182000B9FD0546754B1B6813F0020F54D100F04B
:10183000B1FD401B0228F5D903207FE16F4A1368F0
:1018400043F480331360B5E76C4B1A6842F480228E
:101850001A601A6842F480321A60ABE700F09AFD11
:101860000546664B1B6813F4003FC3D000F092FDA1
:10187000401B6428F5D9032060E1604B5B6813F4DA
:10188000800FC6D15D4B1B6813F0020F03D0E368D5
:10189000012B40F05081594A136823F0F803216965
:1018A00043EAC1031360236813F0080F42D0636951
:1018B0006BB3534B0122C3F8802E00F06BFD05463D
:1018C0004E4B5B6F13F0020F34D100F063FD401BF1
:1018D0000228F5D9032031E1484A136823F0F803C0
:1018E000216943EAC1031360DDE7454B00221A601A
:1018F00000F050FD0546414B1B6813F0020FD2D09B
:1019000000F048FD401B0228F5D9032016E13C4BAE
:101910000022C3F8802E00F03DFD0546374B5B6F7B
:1019200013F0020F06D000F035FD401B0228F5D958
:10193000032003E1236813F0040F77D02F4B1B6CB7
:1019400013F0805F33D1002301932C4B1A6C42F0CB
:1019500080521A641B6C03F080530193019B012594
:10196000284B1B6813F4807F23D0A368012B34D04D
:10197000052B38D0214B1A6F22F001021A671A6F1B
:1019800022F004021A67A368002B3DD000F002FD8C
:1019900006461A4B1B6F13F0020F46D100F0FAFCFB
:1019A000801B41F288339842F3D90320C6E000251A
:1019B000D6E7144A136843F48073136000F0EAFC1E
:1019C0000646104B1B6813F4807FCED100F0E2FC7A
:1019D000801B0228F5D90320B0E0084A136F43F0BA
:1019E00001031367CFE7054B1A6F42F004021A6731
:1019F0001A6F42F001021A67C5E700BF00380240C3
:101A0000000047420070004000F0C4FC0646524B04
:101A10001B6F13F0020F08D000F0BCFC801B41F2DA
:101A200088339842F3D9032088E0EDB9A369002BED
:101A300000F08380484A926802F00C02082A51D0D4
:101A4000022B17D0454B00221A6600F0A3FC044677
:101A5000414B1B6813F0007F42D000F09BFC001B41
:101A60000228F5D9032069E03B4A136C23F0805328
:101A70001364DBE7394B00221A6600F08BFC054645
:101A8000354B1B6813F0007F06D000F083FC401B31
:101A90000228F5D9032051E0E369226A1343626A00
:101AA00043EA8213A26A5208013A43EA0243E26A15
:101AB00043EA0263284A5360284B01221A6600F069
:101AC00069FC0446244B1B6813F0007F06D100F02C
:101AD00061FC001B0228F5D903202FE000202DE037
:101AE00000202BE0012B2BD01B4B5B6803F4800103
:101AF000E269914226D103F03F02216A8A4223D152
:101B0000616A47F6C0721A40B2EB811F1ED103F41E
:101B10004031A26A5208013AB1EB024F18D103F0EA
:101B20007063E26AB3EB026F14D1002006E001207B
:101B30007047012002E0012000E0002002B070BDEB
:101B40000120FBE70120F9E70120F7E70120F5E795
:101B50000120F3E70120F1E700380240000047428E
:101B600008B5254B9B6803F00C03042B3FD0082BD2
:101B70003FD1214B5A6802F03F025B6813F4800F9B
:101B800012D01D4B5968C1F388111C480023A1FBDA
:101B90000001FEF785FB184B5B68C3F3014301337B
:101BA0005B00B0FBF3F025E0134B5968C1F3881CD0
:101BB0004FEA4C11B1EB0C006EEB0E0E4FEA8E1398
:101BC00043EA90638101091A63EB0E03DB0043EAE9
:101BD0005173C90011EB0C0C43F10003990200236F
:101BE0004FEA8C2041EA9C51FEF75AFBD3E70348A9
:101BF00000E0034808BD00BF0038024040787D0186
:101C00000024F400002800F09B8070B50D460446C7
:101C10004F4B1B6803F007038B4208D2CBB24C4AF0
:101C20001370136803F007038B4240F08B80236826
:101C300013F0020F17D013F0040F04D0454A936835
:101C400043F4E0539360236813F0080F04D0414A33
:101C5000936843F4604393603E4A936823F0F00333
:101C6000A1680B439360236813F0010F32D06368BF
:101C7000012B21D09A1E012A25D9364A126812F06A
:101C8000020F61D033498A6822F0030213438B604C
:101C900000F080FB06462F4B9B6803F00C03626844
:101CA000B3EB820F16D000F075FB801B41F2883336
:101CB0009842F0D9032042E0264A126812F4003F0D
:101CC000E0D101203BE0234A126812F0007FD9D115
:101CD000012034E01E4B1B6803F00703AB4207D919
:101CE000EAB21B4B1A701B6803F00703AB422DD1FD
:101CF000236813F0040F06D0164A936823F4E053C8
:101D0000E1680B439360236813F0080F07D0114A72
:101D1000936823F46043216943EAC1039360FFF7AA
:101D20001FFF0C4B9B68C3F303130B4AD35CD840D3
:101D30000A4B18600A4B186800F0E0FA002070BDEA
:101D4000012070470120FAE70120F8E70120F6E7BB
:101D5000003C024000380240200C030834010020FF
:101D600030010020014B1868704700BF340100208B
:101D700008B5FFF7F7FF044B9B68C3F38223034AC0
:101D8000D35CD84008BD00BF00380240300C0308C7
:101D900030B583B00446036813F0050F06D12368FD
:101DA00013F0020F2ED1002003B030BD4A4B0022A9
:101DB0009A6600F0EFFA0546484B1B6813F0006F77
:101DC00006D000F0E7FA431B022BF5D90320EBE71E
:101DD0006268A3681B0743EA8213404AC2F8843052
:101DE0003D4B01229A6600F0D5FA05463B4B1B6835
:101DF00013F0006FD3D100F0CDFA431B022BF5D9BD
:101E00000320D1E700230193344B1A6C42F0805237
:101E10001A641B6C03F080530193019B304A1368D2
:101E200043F48073136000F0B5FA05462C4B1B6831
:101E300013F4807F06D100F0ADFA431B022BF5D9D5
:101E40000320B1E7254B1B6F13F4407314D0E268F5
:101E500002F440729A420FD0204B1A6F22F4407263
:101E60001D490120C1F8400E0020C1F8400E1A673C
:101E70001B6F13F0010F13D1E36803F44072B2F546
:101E8000407F1ED0154A936823F4F81393601349DA
:101E90000B6FE268C2F30B0213430B67002083E76A
:101EA00000F078FA05460D4B1B6F13F0020FE3D1DB
:101EB00000F070FA401B41F288339842F3D90320B6
:101EC00072E706498A6822F4F81223F0704323F47B
:101ED000407313438B60DAE700004742003802404A
:101EE0000070004000230F2B00F2E48070B582B038
:101EF00060E085685E000324B44025EA0405CC68F0
:101F0000B4402C438460456825EA02054C68C4F35C
:101F100000129A402A4342605AE0DC08083450F824
:101F2000246003F0070295000F22AA4026EA020E61
:101F30000A69AA4042EA0E0240F824205CE0072227
:101F400000E0002202FA0EF22A4302345A4D45F80C
:101F500024205A4A14686FEA0C0224EA0C054E68E1
:101F600016F4803F01D04CEA0405544C25606468A7
:101F700002EA04054E6816F4003F01D04CEA04055D
:101F80004E4C6560A46802EA04054E6816F4801F92
:101F900001D04CEA0405494CA560E46822404D6834
:101FA00015F4001F01D04CEA0402444CE2600133F6
:101FB0000F2B7DD801229A400C6804EA020C32EA09
:101FC0000404F4D14C6804F00304013C012C90D9C2
:101FD0004A6802F00302032A09D0C4685D000322A4
:101FE000AA4024EA02048A68AA402243C2604A68DE
:101FF00002F00302022A90D004684FEA430E032243
:1020000002FA0EF224EA02044A6802F0030202FA1B
:102010000EF2224302604A6812F0805FC7D00022AD
:102020000192274A546C44F480445464526C02F484
:1020300080420192019A9C08A51C1F4A52F8255023
:1020400003F003024FEA820E0F2202FA0EF225EA93
:1020500002051C4A90423FF474AF02F58062904240
:102060001AD002F58062904218D002F58062904248
:1020700016D002F58062904214D002F58062904240
:1020800012D002F58062904210D002F58062904238
:102090003FF455AF082255E7012253E7022251E7EA
:1020A00003224FE704224DE705224BE7062249E7CA
:1020B00002B070BD704700BF00380140003C0140D5
:1020C000003802400000024000230F2B00F28F80F6
:1020D000F0B52DE0072500E0002505FA0CFCA4452D
:1020E00069D004685D004FF0030C0CFA05FC24EA8B
:1020F0000C0404604FEAD30E0EF1080E50F82E4087
:1021000003F00705AE000F25B54024EA050440F8AA
:102110002E40C46824EA0C04C460446824EA020225
:102120004260826822EA0C02826001330F2B5DD884
:1021300001229A4002EA010632EA0104F5D14FEA8F
:10214000930E0EF102052A4C54F8254003F0030CBF
:102150004FEA8C0C0F2505FA0CF73C40254DA842A0
:10216000BAD005F58065A84219D005F58065A8426A
:1021700017D005F58065A84215D005F58065A84201
:1021800013D005F58065A84211D005F58065A842F9
:102190000FD005F58065A8429CD008259DE7012554
:1021A0009BE7022599E7032597E7042595E7052591
:1021B00093E7062591E7104C256825EA060525607A
:1021C000656825EA06056560A56825EA0605A56037
:1021D000E56825EA0606E660054E0EF1020456F8AB
:1021E000245025EA070546F824507AE7F0BD7047E9
:1021F0000038014000000240003C01400AB181610A
:10220000704709048161704708B5054B5B6903425B
:1022100000D108BD024B5861FEF7E4F9F9E700BFB1
:10222000003C0140074AD36823F4E0631B041B0C05
:10223000000200F4E060034343F0BF6343F4003363
:10224000D360704700ED00E000B5194BDB68C3F3C5
:102250000223C3F1070CBCF1040F28BF4FF0040C9C
:1022600003F1040EBEF1060F18D9033B4FF0FF3EF9
:102270000EFA0CFC21EA0C0199400EFA03F322EA53
:102280000303194300280BDB0901C9B200F16040C8
:1022900000F5614080F800135DF804FB0023E5E7DA
:1022A00000F00F000901C9B2024B1954F4E700BF56
:1022B00000ED00E014ED00E0002807DB00F01F0255
:1022C000400901239340024A42F82030704700BF82
:1022D00000E100E00138B0F1807F0BD24FF0E02345
:1022E0005861054AF02182F82310002098610722E6
:1022F0001A6170470120704700ED00E010B50446F8
:102300000E4B18784FF47A73B3FBF0F30C4A106855
:10231000B0FBF3F0FFF7DEFF68B90F2C01D9012005
:102320000AE0002221464FF0FF30FFF78DFF054BFA
:102330001C60002000E0012010BD00BF2C01002027
:10234000340100203001002008B50B4B1A6842F41C
:1023500000721A601A6842F480621A601A6842F4C5
:1023600080721A600320FFF75DFF0020FFF7C6FFB1
:10237000FEF74AFF002008BD003C0240034A1168F6
:10238000034B1B780B441360704700BF0CB6002052
:102390002C010020014B1868704700BF0CB60020CC
:1023A00038B50446FFF7F6FF0546B4F1FF3F02D00B
:1023B000044B1B781C44FFF7EDFF401BA042FAD3EF
:1023C00038BD00BF2C0100202DE9F04383B0D0F8C8
:1023D0000080C1EBC10300EB83035A6D1B6D9A4271
:1023E00054D807460C469B1AC1EBC10200EB82028F
:1023F000526C9A4200D31A4602F103094FEA990936
:1024000015E006F103094FEA9909C4EBC40507EB8F
:102410008505A96C3B7C0093B3B2E2B2404601F063
:10242000C3F8AB6C3344AB646B6D33446B6508EB42
:10243000441303F510639B699BB24B4512D3C4EB65
:10244000C40207EB8202516D136D99420AD24BB15F
:102450005B1AC4EBC40207EB8202566C9E42D0D3D7
:102460001E46CEE7C4EBC40007EB80073A6D7B6DD8
:102470009A420FD804F00F040123A340D8F834483F
:1024800024EA0304C8F83448002000E0012003B027
:10249000BDE8F0830020FAE770B58AB0002800F0AC
:1024A00090800546046890F8BD333BB3032385F85C
:1024B000BD33E36B13F4807F01D100232B612868C7
:1024C00000F0FEFD2C4654F8106BEC460FCCACE847
:1024D0000F000FCCACE80F0094E803008CE8030079
:1024E0002B1D0ECB304600F02DFD044658B10223C3
:1024F00085F8BD33012420460AB070BD80F8BC3396
:10250000FEF7E0FFD2E70021286800F0DFFD234658
:1025100016E0C3EBC30205EB8202012182F83D10F5
:1025200082F83C30A2F84230002182F83F1051641A
:102530009164C3EBC30205EB820211650133DBB288
:1025400069688B42E5D316E0C4EBC40305EB830353
:10255000002283F8FD2183F8FC4183F8FF21C3F8B2
:102560000422C3F80822C4EBC40305EB8303C3F8B9
:1025700010220134E4B2A142E6D82C4654F8106B84
:10258000EC460FCCACE80F000FCCACE80F0094E8A1
:1025900003008CE803002B1D0ECB304600F0DCFD61
:1025A000044620B1022385F8BD330124A3E70023AC
:1025B00085F83830012385F8BD33286801F0B0F97B
:1025C00099E7012497E7026890F8BC33012B19D0F2
:1025D00010B50446012380F8BC33836A012B09D06F
:1025E000206800F067FD206801F08CF9002084F875
:1025F000BC0310BD8369012BF2D0936B43F480338D
:102600009363EDE70220704770B504460D460068FD
:10261000066C00EB411303F530639A6821690129C8
:1026200011D034498E424ED03DB9C5EBC50304EB01
:102630008303D3F81032002B56D0E9B22046FEF7C0
:102640008BFF002070BD12F0080F09D02A498E427E
:10265000F7D912F4004FF4D04FF400429A60F0E73B
:1026600012F0200F02D020229A60EAE712F0280F21
:10267000E7D121498E4206D912F4004F03D04FF41E
:1026800000429A60DDE7C5EBC50204EB8202D2F896
:1026900004121B69C3F31203CB1AC2F81432D2F826
:1026A00008320B44C2F8083215B9D2F8103223B1FF
:1026B000E9B22046FEF750FFC3E704F5717201212D
:1026C00001F082F9F4E712F4004F03D04FF4004216
:1026D0009A60B6E712F0200F01D020229A60E9B28A
:1026E0002046FEF739FFACE704F57172002101F0D6
:1026F0006BF9A2E70A31544F0A30544F38B50446FB
:1027000003681D6C03EB4113D3F8081B0E4A954276
:1027100007D903F5306311F4004F02D04FF40042A3
:102720009A602046FEF710FF074B9D4202D92369AD
:10273000012B01D0002038BD04F571720121206801
:1027400001F042F9F6E700BF0A30544F2DE9F84F87
:1027500004460568284601F022F908B1BDE8F88F63
:102760000646206801F0EAF80028F7D0206801F05A
:10277000E5F810F0020F04D02268536903F0020359
:102780005361206801F0DAF810F0100F13D02268BE
:10279000936923F0100393612F6A07F00F08C7F3C2
:1027A0004343022B68D0062B00F084802268936993
:1027B00043F010039361206801F0C0F810F4002F7B
:1027C00040F08A80206801F0B9F810F4802F40F0C2
:1027D000CC80206801F0B2F80028C0F23681206871
:1027E00001F0ACF810F4006F0AD0D5F8083813F0F7
:1027F000010F40F044812268536903F40063536180
:10280000206801F09BF810F4805F40F03C81206864
:1028100001F094F810F4005F40F09181206801F01D
:102820008DF810F0080F40F0A281206801F086F8C2
:1028300010F4801F40F0A481206801F07FF810F4AC
:10284000001F40F0A781206801F078F810F0804F59
:1028500040F0AA81206801F071F810F0040F3FF4F5
:102860007DAF23685D6815F0040F40F0A6812268F3
:1028700053682B43536071E747F6F0731F4295D0BE
:102880004FEA171BC8EBC80904EB8909C7F30A1202
:10289000D9F80812284600F0BBFFCBF30A02D9F89A
:1028A00008321344C9F80832D9F814321A44C9F866
:1028B00014227BE7082204F57171284600F0A8FF76
:1028C000C7F30A17C8EBC80204EB8202D2F814322D
:1028D0001F44C2F8147269E7206801F033F8074614
:1028E000B04616E005EB48130122C3F8082B414619
:1028F0002046FFF789FE1BE005EB48130822C3F8CA
:10290000082B41462046FFF7F9FE14E008F10108C4
:102910007F08002F3FF456AF17F0010FF6D05FFA93
:1029200088F1206801F01EF8814610F0010FD9D11E
:1029300019F0080FE0D119F0100F04D005EB48137F
:102940001022C3F8082B19F0200F04D005EB481310
:102950002022C3F8082B19F4005FD7D005EB4813E9
:102960004FF40052C3F8082BD0E7206800F0F2FFC4
:102970000746B04629E051462046FEF7F9FD19F01A
:10298000080F04D005EB48130822C3F8082919F0F2
:10299000100F04D005EB48131022C3F8082919F0D2
:1029A000400F04D005EB48134022C3F8082919F062
:1029B000020F04D005EB48130222C3F8082919F0CE
:1029C000800F3DD108F101087F08002F3FF401AFCF
:1029D00017F0010FF6D05FFA88FA5146206800F030
:1029E000CAFF814610F0010FC9D008F00F03012182
:1029F00001FA03F2D5F8343823EA0203C5F8343873
:102A000005EB4813C3F8081923698B42B3D1C8EB0F
:102A1000C80304EB8303596C9A6C0A449A64B8F1B6
:102A2000000FA8D1C8EBC80304EB83031B6D002B78
:102A3000A1D104F571720121206800F0C5FF9AE769
:102A400041462046FFF7C0FCBCE7D5F8043823F028
:102A50000103C5F8043894F8F433012B08D020465C
:102A6000FEF7C6FD2268536903F000435361B6E6E2
:102A7000002184F8F413204600F045FAF2E72046DE
:102A8000FEF79EFDB7E605F500677B6823F00103BE
:102A90007B601021206800F031FB20E005EB46133D
:102AA0004FF67F31C3F80819D3F8002922F4001239
:102AB000C3F80029D3F8002942F00062C3F80029C6
:102AC000C3F8081BD3F8002B22F40012C3F8002B24
:102AD000D3F8002B42F00062C3F8002B0136636884
:102AE000B342DBD8FB6943F00113FB61236BDBB11D
:102AF000D7F8843043F00B03C7F884307B6C43F085
:102B00000B037B64D5F8003823F4FE63C5F8003866
:102B100004F57172217C206800F056FF2268536929
:102B200003F48053536172E67B6943F4005343F02E
:102B30002B037B613B6943F00B033B61E2E72068B9
:102B400000F031FF206800F0CFFBE0602568FFF760
:102B500009F90146227B284600F03AFA2046FEF7A2
:102B600018FD2268536903F40053536156E620466A
:102B7000FEF709FD2268536903F00803536154E628
:102B800000212046FEF740FD2268536903F48013BC
:102B9000536151E600212046FEF730FD226853695B
:102BA00003F4001353614EE62046FEF733FD22681E
:102BB000536903F0804353614CE62046FEF730FD35
:102BC00055E690F8BC33012B0DD010B50446012317
:102BD00080F8BC3380F83810006800F083FE0020D5
:102BE00084F8BC0310BD0220704738B505468C46FA
:102BF00011F0800F29D101F00F0ECEEBCE04A4000E
:102C000004F5FC740444211DCEEBCE0E00EB8E0EB9
:102C100000208EF8FD010CF00F0C81F800C08A60D6
:102C2000CB704A780AB1A1F806C0022B1DD095F8E6
:102C3000BC33012B1CD0012385F8BC33286800F07D
:102C400064FB002085F8BC0338BD01F00F00C0EB29
:102C5000C0018900383129440431C0EBC00005EBC4
:102C60008000012480F83D40D5E700230B71DEE7AA
:102C70000220E9E710B504460A4611F0800F20D182
:102C800001F00F00C0EBC0039B0003F5FC7323446D
:102C9000191DC0EBC00004EB8000002380F8FD315B
:102CA00002F00F020A7094F8BC33012B19D00123F3
:102CB00084F8BC33206800F077FB002084F8BC0364
:102CC00010BD01F00F00C0EBC0039B00383323445C
:102CD000191DC0EBC00004EB8000012380F83D30DB
:102CE000DEE70220ECE710B501F00F04C4EBC401ED
:102CF000890001F5FC7101440431C4EBC40C00EB04
:102D00008C0CCCF80822CCF810320023CCF814320A
:102D10008CF8FD318CF8FC410369012B06D064B9B5
:102D2000DAB2006800F0B0FB002010BDC4EBC40CA8
:102D300000EB8C0CCCF80C22F1E7DAB2006800F062
:102D40004BFCF1E701F00F01C1EBC10100EB810188
:102D5000D1F81402704710B501F00F04C4EBC401A0
:102D60008900383101440431C4EBC40C00EB8C0CF5
:102D7000CCF84820CCF850300023CCF85430012354
:102D80008CF83D308CF83C400369012B06D064B9C7
:102D9000DAB2006800F078FB002010BDC4EBC40C70
:102DA00000EB8C0CCCF84C20F1E7DAB2006800F0B4
:102DB00013FCF1E738B501F00F054268954239D8A8
:102DC00004460B4611F0800F1FD1C1EBC1018900F1
:102DD00001F5FC7101440431C3EBC30300EB830331
:102DE000002283F8FD2101238B700D7094F8BC3311
:102DF000012B21D0012384F8BC33206800F017FD9B
:102E00008DB1002084F8BC0338BDC5EBC501890035
:102E1000383101440431C5EBC50300EB83030122C3
:102E200083F83D20DFE704F57172217C206800F013
:102E3000CBFDE6E70120E7E70220E5E701F00F031D
:102E40004268934231D810B5044611F0800F1ED16C
:102E5000C3EBC301890001F5FC7101440431C3EBEC
:102E6000C30200EB8202002082F8FD0100228A707A
:102E70000B7094F8BC33012B19D0012384F8BC33B8
:102E8000206800F001FD002084F8BC0310BDC3EBF6
:102E9000C3018900383101440431C3EBC30200EBA4
:102EA0008202012082F83D00E0E701207047022005
:102EB000ECE710B40468606A31B940EA0240A062ED
:102EC00000205DF8044B70478C46A36A00EB13406A
:102ED000002308E003F1400104EB8101496800EBA5
:102EE00011400133DBB20CF1FF318B42F2D340EAE7
:102EF00002400CF13F0104EB81014860E0E7036808
:102F00005962002070477047002301330C4A9342F6
:102F100011D80269002AF8DA036943F0010303615A
:102F200000230133064A934207D8026912F0010FC9
:102F3000F7D100207047032070470320704700BF7F
:102F4000400D030084B010B5044603A880E80E00CD
:102F5000089B012B1FD1A36B23F48033A363E36889
:102F600023F4840323F04003E360E36823F4401375
:102F7000E3600F9B012B09D02046FFF7C5FF069B9E
:102F8000012B1BD0BDE8104004B07047E36843F448
:102F90008013E360F0E7E36843F04003E36020461A
:102FA000FFF7B2FF0C9B23B9A36B43F48033A363F9
:102FB000E5E7A36B23F48033A363E0E7A36843F062
:102FC0000603A360A36843F02003A360DAE70000D0
:102FD000022A0AD00921C26822F47052C260C36872
:102FE00043EA8123C36000207047234B0B44234AEC
:102FF00093422FD9224B0B44224A93422CD9A1F55C
:103000007403A3F51053204A934227D9A1F1837387
:10301000A3F5E7431D4A934222D31D4B0B441D4A9F
:1030200093421FD91C4B0B441C4A93421CD31C4B8C
:103030000B441C4A934219D3A1F1B773A3F558531B
:10304000194A934214D3194B0B44194A934211D293
:103050000721C0E70F21BEE70E21BCE70D21BAE72B
:103060000C21B8E70B21B6E70A21B4E70921B2E742
:103070000821B0E70621AEE7405327FFFF340C00DC
:10308000401E1BFF3F420F007F4F120020D613004F
:1030900060B6E5FE5FE3160000D3CEFE40771B006E
:1030A000C05BB3FEC091210020753800E05459FE8A
:1030B000E09C4100836843F0010383600020704777
:1030C000836823F0010383600020704708B5C3685C
:1030D00023F0C043C360012909D069B9C36843F034
:1030E0008043C3603220FFF75BF9002008BDC3684E
:1030F00043F00053C360F5E70120F7E7890141F091
:103100002001016100230133054A934205D8026979
:1031100012F0200FF7D1002070470320704700BF46
:10312000400D03001023036100230133054A93423D
:1031300005D8026912F0100FF7D100207047032064
:10314000704700BF400D0300D0F800381943C0F8A5
:10315000001800207047000084B02DE9F0410446BB
:1031600007A880E80E00002306E003F1400204EB0C
:1031700082020021516001330E2BF6D9119F27BB2B
:10318000D4F8043843F00203C4F80438A36B43F4C2
:103190000013A363A36B23F40023A363A36B23F4A3
:1031A0008023A3630023C4F8003E04F50065D4F82F
:1031B0000038C4F800380C9B012B14D1099B6BB963
:1031C00000212046FFF7C0FF11E0A36B23F400139A
:1031D000A363A36B43F40023A363E3E70121204629
:1031E000FFF7B2FF03E003212046FFF7ADFF1021F8
:1031F0002046FFF783FF804608B14FF001082046C4
:10320000FFF790FF08B14FF0010800232B616B61BD
:10321000EB610AE0C3B94FF00060C2F80009002278
:103220000A614FF67F328A6001330799994210D9BB
:1032300004EB431202F51061D2F800090028E9DB23
:103240000020C2F80009EAE74FF09040C2F80009F8
:10325000E5E700230AE0C3B14FF0904CC2F800CB81
:10326000002202614FF67F3282600133994211D908
:1032700004EB431202F53060D2F8006B002EEADB5B
:103280004FF0000CC2F800CBEAE74FF0006CC2F838
:1032900000CBE5E72B6923F480732B610023A36146
:1032A0006FF0804363610A9B1BB9A36943F010036D
:1032B000A361A2690B4B1343A3610D9B1BB1A369CF
:1032C00043F00803A361012F04D04046BDE8F0415C
:1032D00004B07047A36943F0804343F00403A36143
:1032E000F3E700BF00383C80D0F8083813F006033D
:1032F00007D0022B07D0062B01D00F2070470220E9
:103300007047002070470220704710B591F800C048
:103310004B78012B23D000F5006ED0F81C380CF050
:103320000F040122A24043EA0243C0F81C3800EB1C
:103330004C10D0F8003B13F4004F0ED1D0F8003BF6
:103340008A68C2F30A02C97842EA8142134343F011
:10335000805343F40043C0F8003B002010BDD0F878
:103360001C280CF00F0E03FA0EF39BB21343C0F8A7
:103370001C3800EB4C10D0F8003913F4004FECD19E
:10338000D0F800398A68C2F30A02C97842EA814259
:1033900042EA8C5C43EA0C0343F0805343F400435D
:1033A000C0F80039D9E7000030B40B784A78012A18
:1033B00026D000EB4313D3F8002B002A52DBD0F8C1
:1033C0003C480A7802F00F024FF0010C0CFA02F2AE
:1033D00024EA0242C0F83C28D0F81C28097801F001
:1033E0000F010CFA01FC22EA0C42C0F81C28D3F8A9
:1033F000001B234A0A40C3F8002B002030BC704752
:1034000000EB4313D3F80029002A1EDBD0F83C5808
:103410000A7802F00F02012404FA02F292B225EABD
:103420000202C0F83C28D0F81C28097801F00F01EE
:103430008C40A4B222EA0404C0F81C48D3F8001956
:10344000104A0A40C3F80029D7E7D3F8002942F010
:103450000062C3F80029D3F8002942F08042C3F883
:103460000029D3E7D3F8002B42F00062C3F8002B09
:10347000D3F8002B42F08042C3F8002B9FE700BF37
:103480000078F3EF007833EC70B40B784C78012CB3
:1034900027D000EB431000F530631C69E40CE40412
:1034A0001C611C6924F0FF5424F4C0141C614C6995
:1034B0000CB18C684C611C6944F400241C611C69CB
:1034C0008D68C5F3120C44EA0C041C61012A66D015
:1034D000D0F8003B43F00443C0F8003B002070BC30
:1034E00070474C696CBB00EB4314D4F8105925F0BD
:1034F000FF5525F4C015C4F81059D4F8105945F4F7
:103500000025C4F81059D4F81059ED0CED04C4F896
:103510001059012A34D000EB4313D3F8002942F0AC
:103520000442C3F800294B69002BD7D0D0F83438B7
:103530000A7802F00F0101228A401343C0F83438A0
:10354000CCE700EB431404F510642569ED0CED04A1
:103550002561256925F0FF5525F4C01525618D6885
:103560004E69AE4200D94D61256945F400252561BB
:1035700025694E69C6F3120C45EA0C052561C8E7BA
:103580000A691AB100EB4311C1F8142900EB43108A
:10359000D0F8002942F00442C0F800299EE7CA682A
:1035A000002A95D05A6193E710B59DF8084084B978
:1035B00003334FEA930E4FF0000C08E000EB0233A8
:1035C00003F5805351F8044B1C600CF1010CF445D9
:1035D000F4D3002010BD0000F0B583B00B784C7818
:1035E000012C33D000EB431303F5306CDCF81040B2
:1035F000E40CE404CCF81040DCF8104024F0FF5454
:1036000024F4C014CCF810404C69002C40F0CA805F
:10361000DCF810408D68C5F312052C43CCF810403F
:10362000DCF8104044F40024CCF81040012A00F0EB
:10363000D380CA78012A00F0D680D3F8002B42F05C
:103640000442C3F8002B002003B0F0BD4C6984BBDA
:1036500000EB4314D4F8105925F0FF5525F4C0159C
:10366000C4F81059D4F8105945F40025C4F810597D
:10367000D4F81059ED0CED04C4F81059012A4FD0BC
:1036800000EB4313D3F8004944F00444C3F8004965
:10369000CC78012C6DD04B69002BD4D0D0F83438C5
:1036A0000A7802F00F0101228A401343C0F834382F
:1036B000C9E700EB4314D4F81059ED0CED04C4F83D
:1036C0001059D4F8105925F0FF5525F4C015C4F849
:1036D0001059D4F810598E684F6907EB060C0CF19D
:1036E000FF3CBCFBF6FC494E06EACC4C45EA0C0517
:1036F000C4F81059D4F810594E69C6F31206354370
:10370000C4F8105904F51064CD78012DB6D125699F
:1037100025F0C0452561256945F000552561ADE7D7
:103720000A691AB100EB4314C4F81429CA78012AB3
:1037300008D000EB4313D3F8002942F00442C3F849
:10374000002980E7D0F8082812F4807F08D100EB28
:103750004311D1F8002942F00052C1F80029E8E7EE
:1037600000EB4311D1F8002942F08052C1F8002942
:10377000DFE7D0F8084814F4807F0CD1D3F8004973
:1037800044F00054C3F8004900928B8A0A78C96853
:10379000FFF70AFF57E7D3F8004944F08054C3F815
:1037A0000049F1E78D682C44013CB4FBF5F4DCF8EA
:1037B00010501FFA84FE154E06EAC4442543CCF887
:1037C0001050DCF810508C680EFB04F4C4F31204A3
:1037D0002C43CCF8104029E7CA68002A3FF429AFEF
:1037E000CCF8142025E7D0F8082812F4807F06D101
:1037F000D3F8002B42F00052C3F8002B1DE7D3F89A
:10380000002B42F08052C3F8002B16E70000F81F8F
:1038100084460846D11C8908002305E00CF5805237
:10382000126840F8042B01338B42F7D370470B78B2
:103830004A78012A14D000EB4310D0F8002B002A5C
:1038400006DB2BB1D0F8003B23F08043C0F8003BEF
:10385000D0F8003B43F40013C0F8003B0020704751
:1038600000EB4310D0F80029002A06DB2BB1D0F87A
:10387000003923F08043C0F80039D0F8003943F410
:103880000013C0F80039E9E70B784A78012A0ED016
:1038900000EB4310D0F8003B23F40013C0F8003BCA
:1038A000CB78023BDBB2012B15D90020704700EB2F
:1038B0004310D0F8003923F40013C0F80039CB7856
:1038C000023BDBB2012BF0D8D0F8003943F0805333
:1038D000C0F80039E9E7D0F8003B43F08053C0F866
:1038E000003BE2E7D0F8003823F4FE63C0F800386C
:1038F000D0F80038090101F4FE611943C0F800183E
:1039000000207047D0F8003E23F00303C0F8003ECB
:10391000D0F8043823F00203C0F8043800207047C0
:10392000D0F8003E23F00303C0F8003ED0F804387E
:1039300043F00203C0F804380020704742698069F0
:1039400010407047D0F8183800F50060C069184082
:10395000000C7047D0F8183800F50060C0691840B6
:1039600080B2704700EB4111D1F8082B00F50060E0
:1039700040691040704710B4D0F81048D0F834387F
:1039800001F00F02D340DB01DBB2234300EB411017
:1039900000F51060806818405DF8044B704740697E
:1039A00000F001007047D0F8003923F4FF6323F0E2
:1039B0000703C0F80039D0F8043843F48073C0F826
:1039C000043800207047000010B4046C154B9C4272
:1039D00003D9D0F8003B002B16DB0024C0F8104BB5
:1039E000D0F8104B44F40024C0F8104BD0F8104B22
:1039F00044F01804C0F8104BD0F8104B44F0C04409
:103A0000C0F8104B012903D000205DF8044B70472B
:103A1000C0F8142BD0F8003B43F08023C0F8003BE3
:103A2000F2E700BF0A30544F70B40C6850F82430ED
:103A3000134E1E404A688D6842EA0503CA68134364
:103A40000A6913434A6913438A691343CA691343D2
:103A50000A6A13434A6A13438A6A1343CA6A1343BE
:103A6000CA6B13430A6B13433343082D04D040F849
:103A70002430002070BC704743F04003F7E700BFDC
:103A80008000F0FF10B5013250F8223003F0404CB6
:103A90000B684C6843EA04138C6843EA0423CC683F
:103AA00043EA04430C6904F1FF3E43EA0E534C69B8
:103AB000A4F1020E43EA0E6389690B4343EA0C0347
:103AC00040F82230002010BDB3F5804F05D06FF0D4
:103AD000704340F822300020704730B450F8223054
:103AE000094C1C400B684D6843EA05138D6843EA96
:103AF0000523CD6843EA054389690B43234340F816
:103B00002230002030BC70470000F0CF28B370B5E1
:103B10000E461546044690F84930CBB1214651F87F
:103B2000080BFFF781FFA26831462068FFF7AAFF64
:103B3000236BA26829466068FFF7C6FF2268A16868
:103B400052F8213043F0010342F82130002070BDCB
:103B500080F84830FDF794FAE0E7012070470368E9
:103B60005A6912F4806F01D1002070476FF48062AF
:103B70005A6100230363202280F83D2080F83E3004
:103B8000026C42F00402026480F83C30012070476D
:103B90002DE9F04107460D4690461E4624E0FEF70B
:103BA000F9FB069BC01AB04200D8EEB900233B6374
:103BB000202287F83D2087F83E303A6C42F0200200
:103BC0003A6487F83C3001201EE03B689C6925EA96
:103BD000040C1FFA8CFCBCFA8CFC4FEA5C1CE04520
:103BE00011D1B6F1FF3FDAD1C5F30743012BECD178
:103BF0003B685B6925EA030C1FFA8CFCBCFA8CFC61
:103C00004FEA5C1CEBE70020BDE8F0812DE9F041B4
:103C100005460E46174698463DE01A6842F4007283
:103C20001A602B686FF480625A6100232B63202294
:103C300085F83D2085F83E302A6C42F004022A6463
:103C400085F83C30012034E0FEF7A4FBA0EB08002F
:103C5000B84200D8FFB900232B63202285F83D200D
:103C600085F83E302A6C42F020022A6485F83C3008
:103C700001201EE02B689C6926EA0404A4B2003CE3
:103C800018BF0124A4B12B685A6912F4806FC4D103
:103C9000B7F1FF3FD8D1C6F30743012BEAD12B6818
:103CA0005C6926EA0404A4B2003C18BF0124E9E7D9
:103CB0000020BDE8F0810000F0B583B004460D4659
:103CC00016461F46C36A082B0DD0012B0BD013F5E7
:103CD000803F08D0036B122B0AD10268136843F4AB
:103CE0008073136004E02268136843F480731360E8
:103CF0000097334600224FF001112046FFF748FF9E
:103D000080B92369B3F5804F16D1236805F0FE050D
:103D10001D613B46324613492046FFF777FFF8B94D
:103D200003B0F0BD23681B6813F4807F02D04FF40A
:103D3000007323640320F3E7EB11226803F006030A
:103D400043F0F00313613B46324607492046FFF734
:103D50005DFF18B92368EDB21D61DAE70120DFE7E6
:103D60000120DDE702000100080001002DE9F0411B
:103D700084B004460D4616461F46C26A01680B68A9
:103D800043F480630B60082A0DD0012A0BD012F592
:103D9000803F08D0036B112B0AD10268136843F4EB
:103DA0008073136004E02268136843F48073136027
:103DB0000097334600224FF001112046FFF7E8FE3E
:103DC00098B92369B3F5804F19D1236845F00105EF
:103DD000EDB21D613B4632462A492046FFF716FFE9
:103DE00000284CD104B0BDE8F08123681B6813F4AF
:103DF000807F02D04FF4007323640320F2E74FEA80
:103E0000E51808F00608236848F0F0021A613B46FE
:103E100032461D492046FFF7F9FE08B10120E1E7CF
:103E20002368EDB21D613B46324616492046FFF736
:103E3000EDFE08B10120D5E70022039223685969FD
:103E40000391996903910399196841F4807119608C
:103E5000009733464FF001112046FFF799FE20B935
:103E6000226848F0F1031361B4E723681B6813F478
:103E7000807F02D04FF4007323640320B2E7012057
:103E8000B0E700BF020001000800010070B5044661
:103E90000D46164623685B6913F0800F1CD120463F
:103EA000FFF75DFED0B9B5F1FF3FF3D0FEF772FA30
:103EB000801BA84201D8002DECD1002323632022CF
:103EC00084F83D2084F83E30226C42F020022264C7
:103ED00084F83C30012000E0002070BD0120FCE7A8
:103EE00070B504460D46164623685B6913F0040F4F
:103EF0001CD12046FFF733FED0B9B5F1FF3FF3D018
:103F0000FEF748FA801BA84201D8002DECD100230F
:103F10002363202284F83D2084F83E30226C42F056
:103F20002002226484F83C30012000E0002070BDB3
:103F30000120FCE770B505460C4616462B6859690A
:103F400011F0400F29D1596911F0100F15D1FEF76A
:103F500021FA801BA04201D8002CEFD100232B6353
:103F6000202285F83D2085F83E302A6C42F0200260
:103F70002A6485F83C30012070BD6FF010025A6150
:103F800000232B63202285F83D2085F83E302A6CE3
:103F90002A6485F83C300120EEE70020ECE70000C1
:103FA000002800F0CC8070B5044690F83D30002B1E
:103FB00077D0242384F83D302268136823F001036E
:103FC00013602268136843F4004313602268136887
:103FD00023F400431360FDF7CBFE62685A4B9A420C
:103FE00064D85A4B98428CBF00230123002B40F029
:103FF000A8805749A1FB00318B0C25686A6822F024
:104000003F0242EA91426A6021680A6A22F03F0256
:1040100066684D4DAE424FD8013313430B622168A1
:10402000CA6922F44F4222F0FF026668464B9E4264
:104030004CD8431E7600B3FBF6F3013340F6FC7018
:10404000034278D0C3F30B031343CB6121680B68A1
:1040500023F0C003E269206A024313430B60216826
:104060008B6823F4034323F0FF032269E0680243D3
:1040700013438B602168CB6823F0FF036269A0695A
:1040800002431343CB602268136843F001031360BB
:1040900000202064202384F83D30206384F83E0013
:1040A00070BD80F83C30FDF70DF882E7294B98424F
:1040B0008CBF0023012399E74FF4967505FB03F3AA
:1040C000254DA5FB03539B090133A6E7A368BBB9A4
:1040D000451E06EB460CB5FBFCF50135C5F30B059B
:1040E000B5FA85F56D0945BBC3B9013806EB460342
:1040F000B0FBF3F30133C3F30B0343F40043A3E733
:10410000451E06EB860C0CEB8C0CB5FBFCF5013563
:10411000C5F30B05B5FA85F56D09E4E7013806EB43
:10412000860303EB8303B0FBF3F30133C3F30B0309
:1041300043F4404388E7042386E7012384E7012012
:1041400070470120ACE700BFA08601007F841E00FD
:1041500083DE1B43FF083D00D34D62102DE9F04381
:1041600085B004460F46914698460C9EFEF712F91C
:10417000054694F83D00C0B2202804D002273846F6
:1041800005B0BDE8F0830095192301224F49204670
:10419000FFF7FEFC002840F0928094F83C30012BA1
:1041A00000F08F80012384F83C3023681A6812F0F5
:1041B000010F03D11A6842F001021A6022681368E5
:1041C00023F400631360212384F83D30102384F826
:1041D0003E3000232364C4F82490A4F82A80638D21
:1041E00023853B4BE3622B46324639462046FFF798
:1041F00063FD0746002866D10023039323685A69AC
:1042000003929B690393039B11E0236C042B01D061
:104210000127B4E72268136843F400731360F7E7DB
:104220002A4631462046FFF75BFE00282ED1238D1B
:10423000002B36D02A4631462046FFF727FE0028BD
:10424000E3D1626A236812781A61606A431C636270
:10425000618D89B2013989B26185238D013B9BB2A1
:1042600023852268516911F0040FD9D0002BD7D0D3
:1042700043781361636A01336362638D9BB2013BD0
:104280009BB26385238D013B2385C9E7236C042BF7
:1042900001D0012773E72268136843F400731360A9
:1042A000F7E72268136843F400731360202384F84F
:1042B0003D30002384F83E3084F83C305FE702272D
:1042C0005DE702275BE7012759E700BF0200100006
:1042D0000000FFFF2DE9F04387B004460F469146EA
:1042E00098460E9EFEF756F8054694F83D00C0B27B
:1042F000202804D00227384607B0BDE8F083009597
:104300001923012289492046FFF742FC002840F08A
:10431000458194F83C30012B00F04281012384F860
:104320003C3023681A6812F0010F03D11A6842F07A
:1043300001021A602268136823F4006313602223C9
:1043400084F83D30102384F83E3000232364C4F801
:104350002490A4F82A80638D2385754BE3622B4655
:10436000324639462046FFF701FD0746002840F057
:104370001981238D5BB9029323685A6902929A6965
:104380000292029A1A6842F400721A607AE0012BD3
:104390000FD0022B1FD02268136843F48063136090
:1043A0000023059323685A6905929B690593059B31
:1043B00068E02268136823F480631360002303938A
:1043C00023685A6903929A690392039A1A6842F41D
:1043D00000721A6056E02268136823F48063136049
:1043E0002268136843F40063136000230493236876
:1043F0005A6904929B690493049B43E02A46314620
:104400002046FFF797FD002840F0CE8023681A6908
:10441000636A1A70636A01336362238D013B2385EB
:10442000638D9BB2013B9BB263852BE000953346C5
:10443000002240492046FFF7ABFB002840F0B68041
:104440002268136843F40073136023681A69636A6F
:104450001A70626A531C6362238D013B2385638D4E
:104460009BB2013B9BB2638523681B695370636AEF
:1044700001336362238D013B2385638D9BB2013B36
:104480009BB26385218D00297FD0032954D801294F
:10449000B4D00229CAD000953346002225492046CF
:1044A000FFF776FB002840F083802268136823F42E
:1044B0008063136023681A69636A1A70636A013340
:1044C0006362238D013B2385618D89B2013989B2F5
:1044D000618500953346002216492046FFF758FBB8
:1044E000002867D12268136843F4007313602368BF
:1044F0001A69636A1A70626A531C6362238D013BF6
:104500002385638D9BB2013B9BB2638523681B6946
:104510005370636A01336362238D013B2385638D8E
:104520009BB2013B9BB26385ACE700BF0200100069
:104530000000FFFF040001002A4631462046FFF735
:10454000F9FC002838D123681A69636A1A70626A14
:10455000531C6362238D013B2385638D9BB2013B1A
:104560009BB263852368596911F0040F8AD01B69D7
:104570005370636A01336362238D013B2385638D2E
:104580009BB2013B9BB263857CE7202384F83D30DE
:10459000002384F83E3084F83C30ACE60227AAE6DB
:1045A0000227A8E60127A6E60127A4E60127A2E63E
:1045B0000127A0E601279EE601279CE6054BD3F8DC
:1045C000882042F47002C3F888204FF000629A609D
:1045D000704700BF00ED00E098B108B50346002029
:1045E000C3F8B802C3F8C002C3F8CC0209B1C3F8DB
:1045F000B412012183F89C121A701846FDF716F8C0
:1046000008BD0320704710B582B00023ADF8063016
:1046100061B10446C0F8B812CB6A4BB10DF1060087
:104620009847C4F8CC02002002B010BD0320FBE77D
:104630000020F9E708B5FDF754F808BD08B5D0F833
:10464000B83213B11B68984708BD0320FCE708B5D2
:10465000D0F8B8320BB15B689847002008BD38B578
:10466000044600F2AA25284600F065F90123C4F8A3
:104670009432B4F8B032C4F8983294F8AA1201F027
:104680001F03012B0DD0022B10D02BB101F08001A4
:104690002046FDF741F803E02946204600F009FBDB
:1046A00038BD2946204600F03CFBF9E72946204664
:1046B00000F06BFBF4E738B504460D4641BB1346EA
:1046C000D0F89422032A01D0084638BDD0F85C11F6
:1046D000D0F86021914209D890F89C32DBB2032BCC
:1046E0000FD0204600F090FC2846EEE7891AC0F86B
:1046F0005C118A4228BF0A46194600F07DFC284614
:10470000E3E7D0F8B8321B69002BEAD09847E8E716
:1047100090F89C32DBB2032B01D00020D5E7D0F813
:10472000B8329B690BB19847CFE70020CDE738B589
:1047300004460D4600294AD11346D0F89422022A95
:1047400005D094F8A032012B3CD0284638BDC26970
:10475000016A8A420ED88A4218D094F89C32DBB2A1
:10476000032B27D080212046FCF7D6FF204600F0FF
:1047700056FCE6E7521AC261194600F026FC0023F7
:104780001A4619462046FCF7E7FFDAE783699942A3
:10479000E3D8D0F898229342DFD20022114600F0ED
:1047A00014FC0021C4F898120B460A462046FCF778
:1047B000D3FFC6E7D4F8B832DB68002BD2D020464E
:1047C0009847CFE7002384F8A0322846BEE790F848
:1047D0009C32DBB2032B01D00020B7E7D0F8B8320F
:1047E0005B690BB19847B1E70020AFE7012380F880
:1047F0009C320023C0F894324360C0F8A432D0F851
:10480000B832F3B170B50446D0F8BC221AB15B6877
:104810000BB1002198474023002211462046FCF7A7
:1048200068FF0126A4F864614025C4F860512B4656
:10483000002280212046FCF75CFFA6842562002030
:1048400070BD0320704701740020704790F89C32BF
:10485000DBB280F89D32042380F89C320020704740
:1048600090F89C32DBB2042B01D00020704790F806
:104870009D32DBB280F89C32F7E7D0F8B82262B103
:1048800008B590F89C32DBB2032B01D0002008BDA4
:10489000D36923B198470020F9E70320704700202F
:1048A000F5E7D0F8B82262B108B590F89C32DBB2D7
:1048B000032B01D0002008BD136A23B198470020C4
:1048C000F9E7032070470020F5E7D0F8B82262B17D
:1048D00008B590F89C32DBB2032B01D0002008BD54
:1048E000536A23B198470020F9E70320704700205E
:1048F000F5E70020704708B5012380F89C32D0F816
:10490000B83213B15B6801799847002008BD0346AF
:10491000002002E00130C0B201331A78002AF9D138
:10492000704708B54B88012B00D008BDC0F8A432F1
:1049300000F06AFBF9E70B7803704B7843708B78D3
:10494000CA7843EA022343800B794A7943EA022377
:1049500083808B79CA7943EA0223C380704710B5FC
:1049600004468021FCF7D8FE00212046FCF7D4FE47
:1049700010BD30B583B004460D460023ADF80630B7
:104980004A88130A013B062B00F2AB80DFE803F0F4
:10499000041F33A9A98D9A00D0F8B4321B680DF119
:1049A0000601007C9847EA88002A00F0A380BDF841
:1049B0000630002B00F099809A4228BF1A46ADF8C5
:1049C00006200146204600F0F3FA03B030BD037C18
:1049D00043B9D0F8B8329B6A0DF10600984702231C
:1049E0004370E0E7D0F8B832DB6A0DF10600984773
:1049F00002234370D7E7D2B2052A52D8DFE802F08B
:104A000003101D2A3744D0F8B4325B6823B10DF18E
:104A10000601007C9847C6E72946FFF7A0FFD4E7C8
:104A2000D0F8B4329B6823B10DF10601007C9847A1
:104A3000B9E72946FFF793FFC7E7D0F8B432DB6840
:104A400023B10DF10601007C9847ACE72946FFF73A
:104A500086FFBAE7D0F8B4321B6923B10DF1060125
:104A6000007C98479FE72946FFF779FFADE7D0F82C
:104A7000B4325B6923B10DF10601007C984792E7DF
:104A80002946FFF76CFFA0E7D0F8B4329B6923B149
:104A90000DF10601007C984785E72946FFF75FFF87
:104AA00093E72946FFF75BFF8FE7037C33B9D0F824
:104AB000B8325B6B0DF10600984774E72946FFF7A3
:104AC0004EFF82E7037C43B9D0F8B8321B6B0DF17F
:104AD000060098470723437065E72946FFF73FFF25
:104AE00073E72946FFF73BFF6FE729462046FFF7AC
:104AF00036FF6AE7204600F087FA66E738B50446D5
:104B00008B88FBB9CB88EBB94B887F2B1AD803F085
:104B10007F0590F89C32DBB2032B0CD080F89E52BC
:104B20002946FCF709FE204600F06EFA35B1022353
:104B300084F89C3209E0FFF712FF06E0012384F8B5
:104B40009C3202E02046FFF70AFF38BD70B50446EC
:104B50000E468D782E4B1D70012D10D890F89C328A
:104B6000DBB2022B0FD0032B23D0FFF7F8FE284B2C
:104B700019782046FFF76BFD0325284670BDFFF727
:104B8000EEFE0325F9E78DB145602946FFF756FD96
:104B9000054620B131462046FFF7E1FEEDE720460D
:104BA00000F032FA032384F89C32E6E700F02CFA96
:104BB000E3E7CDB141688D4225D0C9B2FFF747FD8B
:104BC000134B197861602046FFF738FD0546B0B1F8
:104BD00031462046FFF7C3FE21792046FFF737FD17
:104BE000022384F89C32C8E7022380F89C32456097
:104BF0002946FFF72CFD204600F006FABDE72046C7
:104C000000F002FAB9E700F0FFF90025B5E700BFB0
:104C100010B6002008B5CB88012B0BD190F89C3240
:104C2000DBB2022B09D9032B09D10122011D00F0AF
:104C3000BFF901E0FFF793FE08BD5BB213B9FFF7C0
:104C40008EFEF9E70146002341F8083F012200F0FB
:104C5000AFF9F1E708B590F89C32013B022B12D86E
:104C6000CB88022B0CD10123C360D0F8A4320BB146
:104C70000323C360022200F10C0100F099F908BD82
:104C8000FFF76DFEFBE7FFF76AFEF8E708B590F85F
:104C90009C32013B022B09D84B88012B00D008BD68
:104CA0000023C0F8A43200F0AFF9F8E7FFF757FE91
:104CB000F5E738B50C7804F06004202C06D0402CC1
:104CC00004D054B1FFF74BFE002404E0D0F8B83212
:104CD0009B6898470446204638BD4D78092D1DD85D
:104CE000DFE805F012191C161C08051C0F0BFFF756
:104CF00040FEF0E7FFF702FFEDE7FFF727FF04466E
:104D0000E9E7FFF787FFE6E7FFF7A4FF2C46E2E7B6
:104D1000FFF707FEDFE7FFF7B9FFDCE7FFF71FFE4E
:104D2000D9E770B505460C460B7803F06003202BDD
:104D300007D0402B05D023B1FFF711FE00263046E7
:104D400070BD95F89C32013B022B18D82379012BBA
:104D50000FD8D5F8B8329B682146284698470646B2
:104D6000E388002BEBD10028E9D1284600F04CF96C
:104D7000E5E721462846FFF7F2FD0026DFE721465A
:104D80002846FFF7ECFD0026D9E7F8B506460D46A4
:104D90008B880C7804F06004202C08D0D9B2402C09
:104DA00005D06CB12946FFF7DAFD002406E0D6F8FD
:104DB000B8329B6829463046984704462046F8BDDD
:104DC0006F78012F2FD0032F05D0002F59D02946FF
:104DD000FFF7C5FDF2E790F89C32DBB2022B05D05D
:104DE000032B12D02946FFF7BAFDE7E709B1802966
:104DF00004D129463046FFF7B2FDDFE7FCF78CFC13
:104E000080213046FCF788FCD8E76B8823B919B1BC
:104E1000802901D0EB881BB1304600F0F5F8CDE7D2
:104E2000FCF77AFCF8E790F89C32DBB2022B05D055
:104E3000032B12D02946FFF792FDBFE709B1802965
:104E400004D129463046FFF78AFDB7E7FCF764FC3A
:104E500080213046FCF760FCB0E76B88002BADD1B9
:104E600011F07F0F0AD1304600F0CEF8D6F8B832F4
:104E70009B6829463046984704469FE7FCF754FC58
:104E8000F1E790F89C22D2B2022A06D0032A29D058
:104E90002946FFF764FD3C4690E709B1802913D10C
:104EA00013F0800F15D101F07F0101EB8101890022
:104EB00001F5A8713144043100230B600222304611
:104EC00000F076F83C4679E72946FFF748FD3C4676
:104ED00074E701F07F0101EB810189001031314459
:104EE0000431E9E75BB2002B1FDB01F00F0202EB9C
:104EF000820200EB8202B2F8642122B3002B27DB8E
:104F000001F07F0303EB83039C0004F5A874344491
:104F1000043409B1802924D10023236002222146D0
:104F2000304600F045F83C4648E701F00F0202EB3E
:104F3000820200EB8202928C002ADFD12946FFF721
:104F40000EFD3C463AE72946FFF709FD3C4635E7AA
:104F500001F07F0303EB83039C00103434440434DA
:104F6000D7E73046FCF796FB10B101232360D5E765
:104F700000232360D2E7D0B170B50D461646044633
:104F8000FFF7C5FC431C5B009BB233802B700323EF
:104F90006B70022307E0EA5401345A1CD2B200219C
:104FA000A9540233DBB22278002AF4D170BD7047D5
:104FB00008B513460222C0F894228361C3610A46F1
:104FC0000021FCF7C1FB002008BD08B513460A46C6
:104FD0000021FCF7B9FB002008BD08B513460322E9
:104FE000C0F89422C0F85831C0F85C310A4600215C
:104FF000FCF7B2FB002008BD08B513460A460021A5
:10500000FCF7AAFB002008BD08B50422C0F89422D2
:1050100000231A461946FCF797FB002008BD08B587
:105020000522C0F8942200231A461946FCF794FB87
:10503000002008BD10B5D0F8BC4284B1D0F8C03211
:105040007BB194F80002FF280DD09B6894F80122F0
:1050500021469847FF2384F80032002010BD03202A
:10506000FCE70020FAE70020F8E700004323038074
:1050700000487047700100204323038000487047B8
:10508000B40100204323038000487047040200203D
:105090000A23038000487047F801002038B5D0F893
:1050A000BC5275B10446FCF70CFBC5F80C02D4F8F1
:1050B000C032DB6805F50371D5F80402984700207B
:1050C00038BD0320FCE710B5D0F8C442D0F8BC329C
:1050D00053B301EB810200EB820292694AB1C1EB4A
:1050E000C10C04EB8C04646CB2FBF4FC04FB1C22CA
:1050F00072B10022C3F81422D0F8C0221469ACB1F6
:105100000A4603F50471D3F80802A047002010BD39
:1051100001EB810300EB830300249C6123462246BC
:10512000FCF712FB2046F2E70320F0E70020EEE751
:10513000F0B583B0D0F8BC6200238DF80730ADF82D
:105140000430002E6CD007460C460B7813F0600537
:105150002AD0202D5ED1CA88F2B113F0800F0FD073
:10516000D0F8C0329B68314660789847E288072AB9
:1051700028BF072231463846FFF71AFF00254CE0CA
:105180004B7886F800328B7986F80132CA8831462E
:10519000FFF723FF002540E0D0F8C0329B680022D3
:1051A00048789847002538E04E780B2E2ED8DFE857
:1051B00006F006342D2D2D2D2D2D2D2D152490F896
:1051C0009C32DBB2032B03D0FFF7C9FB032524E09D
:1051D000022201A9FFF7ECFE35461EE090F89C3252
:1051E000DBB2032B03D0FFF7BAFB032515E0012246
:1051F0000DF10701FFF7DCFE0FE090F89C32DBB207
:10520000032B0AD0FFF7ABFB032506E0FFF7A7FB54
:10521000032502E0FFF7A3FB0325284603B0F0BDFA
:105220000325FAE738B504468121FCF76DFA00251D
:10523000258701212046FCF767FAA4F878518221DE
:105240002046FCF761FAA4F84C50A4F84E50D4F86C
:10525000BC324BB1D4F8C0325B689847D4F8BC027A
:105260002AF02EFCC4F8BC52002038BD70B50446AC
:105270004FF407702AF01CFCB8B30646C4F8BC0211
:10528000237CBBBB4FF40073022281212046FCF734
:1052900030FA012525874FF4007302222946204663
:1052A000FCF727FAA4F878511023A4F84E3008230D
:1052B000032282212046FCF71CFA0123A4F84C307B
:1052C000D4F8C0321B6898470023C6F81432C6F8D9
:1052D0001832257C15BB4FF40073D6F80422012147
:1052E0002046FCF739FA284670BD0023C4F8BC32CA
:1052F0000225F8E74023022281212046FCF7F9F934
:10530000012525874023022229462046FCF7F1F992
:10531000A4F878511023A4F84E30C8E74023D6F8FB
:10532000042201212046FCF717FA0025DBE719B11A
:10533000C0F8C0120020704703207047D0F8BC327C
:105340002BB1C3F80812C3F81022002070470320C5
:105350007047D0F8BC321BB1C3F80412002070476C
:1053600003207047D0F8BC22A2B108B5D2F814329D
:105370000BB1012008BD0123C2F81432D2F810325B
:10538000C362D2F81032D2F808228121FCF7DCF98E
:105390000020EFE70320704710B5D0F8BC2292B18F
:1053A000047C44B94FF40073D2F804220121FCF7C5
:1053B000D3F9204610BD4023D2F804220121FCF786
:1053C000CBF90024F5E70324F3E708B5034610B151
:1053D0002BB1186908BD1BF0C7F90346F8E718465A
:1053E000F8E708B5034610B12BB1586908BD1BF0AA
:1053F000BBF90346F8E71846F8E708B5034610B1CD
:105400002BB1D86908BD1BF0AFF90346F8E7184681
:10541000F8E708B5034610B12BB1186A08BD1BF0B8
:10542000A3F90346F8E71846F8E708B5034608B1BC
:10543000986808BD1BF098F90346F9E7806848B101
:10544000837E8B4205D9C06801EB410100EB8100EE
:10545000704700207047113815280ED8DFE800F09B
:105460000B0B0B0B0B0B0B0B0B0B0B0D0D0B0D0D84
:105470000B0B0B0B0D0B002070470120704710B574
:105480000C4608B1006803E04B68186800E000684B
:1054900010B10369002BFAD060B1036963B1002336
:1054A000E360036921469847237E13F0010F05D17D
:1054B000012010BD0120FCE70120FAE70020F8E7F9
:1054C000F8B5054600F04AFF20B1006883680BB1CB
:1054D000297A984700216868FFF7B0FF04462946FB
:1054E0000020FFF7CCFF074600260EE06368EB6064
:1054F0002368284698472B7E13F0010F2FD10136E1
:1055000031466868FFF79AFF04465CB1012F09D164
:105510002368002BF3D0237A002BE7D02A7A93421A
:10552000EDD1E3E7012F01D03846F8BD287AFFF727
:1055300092FF0028F8D04FF48051686802F07BFC9D
:105540000028F1D06B685B68002BEDD06B602846BB
:10555000FFF7B6FF07460128E6D00027E4E700275B
:10556000E2E70000C8B110B588B0019002908DF854
:105570000C100021049105929DF81C3061F300038A
:105580008DF81C30064C2368069301A82060FFF7B5
:1055900097FF069B236008B010BD0120704700BF35
:1055A00014B6002000687047007A704700697047A1
:1055B000C0687047084B1B6804E01A7E42F0010285
:1055C0001A765B6933B15A688242F6D01A68824211
:1055D000F7D1F2E7704700BF14B600202DE9F04183
:1055E00004460F4616461D4602F096FDA268937EBD
:1055F00001339376D4F8088098F81A1001EB410132
:105600008900D8F80C001CF0ABFAC8F80C00A368AD
:10561000DA680AB39B7E03EB43039B000C3BD75035
:10562000A268D368917E01EB410189000C391944CD
:105630000E72A268D368927E02EB420292000C3A8C
:105640001A445560A368D8689B7E03EB43039B0014
:105650000C3B1844BDE8F081FEE708B5037A013B36
:10566000DBB20F2B02D8FFF7A1FF08BD0020FCE73B
:10567000037A132B00D0704710B50C46FFF796FF46
:10568000B0F90010A142B8BF2146018010BDF8B5A5
:10569000054600201BF0FEF804460026374605E0CC
:1056A0002646274620461BF0F5F804465CB1204606
:1056B00000F05AFE236DAB42F4D102280ED004282C
:1056C000EED02646EEE70FB13846F8BD0EB13746AC
:1056D000FAE700201BF0DEF80746F5E72746F3E778
:1056E0002DE9F843037E13F0010F2DD106468946BC
:1056F0009046C4680127002544B30123002D33D010
:105700002BB121463046C047044685421CD0002CB0
:10571000F2D0206802F09CFB10F0800FECD1012148
:10572000206802F088FB0028E6D1F368A3420BD082
:1057300013B31D683046FFF7AAFF02460F21284623
:10574000FFF710FF012813D0BDE8F883337E13F074
:10575000080F01D1002DF7D1002FF5D03046C847F2
:10576000044600273B46C9E7002CEDD02546C7E795
:10577000F368186803F063FCF46024683046FFF7B0
:1057800086FF02460E212046FFF7ECFE0128DBD102
:10579000F368186803F053FC3369002BD4D030460B
:1057A0009847D1E708B51C2101481BF0A3FE08BDAE
:1057B000DCB80020014B1868704700BF18B6002005
:1057C00008B5024A0249FFF78BFF08BD9115020890
:1057D0008115020808B5024A0249FFF781FF08BD9A
:1057E000991502088915020838B50446037EC3F3EB
:1057F000C00543F008030376DBB213F0040F06D1B3
:10580000FFF7DEFF237E65F3C303237638BDFFF782
:10581000E1FFF7E7A8B370B50C4605461BF0B0FEF4
:10582000014639B10B68A3421ED028461BF0B0FEDA
:105830000146F6E7204602F013FB30B1A3689B68EF
:105840001BB1DB681B68A3420FD0A36883B1A368B8
:105850009D6028461BF075FE064668B10460284628
:105860001BF08EFE864208D070BDFFF7BDFFECE74F
:10587000204602F051FCEAE7FEE72846FFF7B4FFB6
:10588000F2E7704770B5064602F0EAFA002849D000
:105890000546C36813B11B68B34213D0EB6813B15C
:1058A0001B68B34230D028461BF06AFE0446002C29
:1058B00038D02368B3422AD0214628461BF068FE20
:1058C0000446F4E7037E13F0010F03D0037E6FF369
:1058D0000003037628461BF053FEEB68834203D097
:1058E0002846FFF781FFD9E728461BF04DFEEB68FD
:1058F0008342F5D11C682846FFF7C9FE02460F21F6
:105900002046FFF72FFEC9E70023EB60CBE72146D7
:1059100028461BF044FE20461BF0DAFFB3680BB1AB
:1059200000229A6070BD18B1C06808B10068704765
:10593000704700B583B00191FFF7F5FF30B101AAC0
:105940000D21FFF70FFE03B05DF804FB0120FAE71D
:10595000F8B170B50446037EC3F340038B4213D005
:10596000037E61F341030376FFF7DDFF054658B17F
:10597000E3681E682046FFF78AFE02460E21304685
:10598000FFF7F0FD012800D070BD284603F057FB5B
:10599000FAE77047002845D0F8B5054602F060FAEE
:1059A000064618B1037E13F0010F00D0F8BD0021A8
:1059B000FFF7CEFF30461BF0E3FD0446002CF5D088
:1059C0002368AB4205D0214630461BF0E1FD04467A
:1059D000F4E7F36883B11F68AF420DD03046FFF79C
:1059E00056FE02460F213846FFF7BCFD0128DDD1E7
:1059F000F368186803F023FBF46033690BB1304699
:105A00009847F3681C683046FFF741FE02460E21B6
:105A10002046FFF7A7FD0128C8D1F368186803F0F6
:105A20000EFBC3E7704718B1007EC0F3400070471B
:105A30000020704708B51BF00AFE08BD437913F03B
:105A4000020F1BD0002343628362C362427963F377
:105A500000024271436483640383438390F84020CF
:105A600063F3030280F840208383C3838387C38763
:105A7000427963F341024271014A1360704700BFEB
:105A800020B60020407810F0020F02D0024B002216
:105A90001A60C0F34000704720B6002038B50446B5
:105AA000437813F0080F08D00023036243620364B5
:105AB0004364427863F3C3024270206A1B4B186050
:105AC000A56A68B11A4B1A680821FFF74BFD2046FA
:105AD000FFF7D8FF58B95DB10023236223646364E4
