:020000040800F2
:100000000000022079C202085112000853120008B1
:10001000551200085712000859120008000000008D
:100020000000000000000000000000005B1200085B
:100030005D120008000000005F1200086112000855
:10004000C9C20208C9C20208C9C20208C9C202085C
:10005000C9C20208C9C202086F120008C9C2020858
:10006000C9C20208C9C20208C9C20208C9C202083C
:10007000C9C20208C9C20208C9C20208C9C202082C
:10008000C9C20208C9C20208C9C20208C9C202081C
:10009000C9C20208C9C20208C9C20208C9C202080C
:1000A000C9C20208C9C20208C9C20208C9C20208FC
:1000B000C9C20208C9C20208C9C20208C9C20208EC
:1000C000C9C20208C9C20208C9C20208C9C20208DC
:1000D000C9C20208C9C20208C9C20208C9C20208CC
:1000E000C9C20208C9C20208C9C20208C9C20208BC
:1000F000C9C20208C9C20208C9C20208C9C20208AC
:10010000C9C20208C9C20208C9C20208C9C202089B
:10011000C9C20208C9C20208C9C20208C9C202088B
:1001200079120008C9C20208C9C20208C9C202087D
:10013000C9C20208C9C20208C9C20208C9C202086B
:10014000C9C20208C9C20208C9C20208891200084D
:10015000C9C20208C9C20208C9C20208C9C202084B
:10016000C9C20208C9C20208C9C20208C9C202083B
:10017000C9C20208C9C20208C9C2020800000000C0
:08018000C9C20208C9C202084D
:1001900010B5054C237833B9044B13B10448AFF3C1
:1001A00000800123237010BDAC030020000000007C
:1001B000E4D3020808B5034B1BB103490348AFF36E
:1001C000008008BD00000000B0030020E4D3020856
:1001D00010F8012B11F8013B012A28BF9A42F7D0F1
:1001E000D01A7047034613F8012B002AFBD1181AC6
:1001F000013870470000000000000000000000000F
:1002000001F0FF01102A2BDB10F0070F08D010F8C7
:10021000013B013A8B422DD010F0070F42B3F6D1CB
:10022000F0B441EA012141EA014122F007047FF0E4
:1002300000070023F0E80256083C85EA010586EA3B
:10024000010685FA47F5A3FA87F586FA47F6A5FA77
:1002500087F68EB9EED1F0BC01F0FF0102F0070283
:1002600032B110F8013B013A83EA010313B1F8D12E
:100270000020704701387047002D06BF354603380F
:10028000073815F0010F07D1013015F4807F02BF48
:10029000013015F4C03F0130F0BC0138704700BF99
:1002A00053B94AB9002908BF00281CBF4FF0FF31DD
:1002B0004FF0FF3000F074B9ADF1080C6DE904CED9
:1002C00000F006F8DDF804E0DDE9022304B0704731
:1002D0002DE9F047089D04468E46002B4DD18A42F9
:1002E000944669D9B2FA82F252B101FA02F3C2F12C
:1002F000200120FA01F10CFA02FC41EA030E9440BD
:100300004FEA1C48210CBEFBF8F61FFA8CF708FBDD
:1003100016E341EA034306FB07F199420AD91CEBB5
:10032000030306F1FF3080F01F81994240F21C81E7
:10033000023E63445B1AA4B2B3FBF8F008FB10332F
:1003400044EA034400FB07F7A7420AD91CEB040464
:1003500000F1FF3380F00A81A74240F20781644434
:10036000023840EA0640E41B00261DB1D4400023B9
:10037000C5E900433146BDE8F0878B4209D9002D1D
:1003800000F0EF800026C5E9000130463146BDE8A7
:10039000F087B3FA83F6002E4AD18B4202D3824211
:1003A00000F2F980841A61EB030301209E46002DC0
:1003B000E0D0C5E9004EDDE702B9FFDEB2FA82F215
:1003C000002A40F09280A1EB0C014FEA1C471FFA73
:1003D0008CFE0126200CB1FBF7F307FB131140EA5A
:1003E00001410EFB03F0884208D91CEB010103F127
:1003F000FF3802D2884200F2CB804346091AA4B2E9
:10040000B1FBF7F007FB101144EA01440EFB00FEBC
:10041000A64508D91CEB040400F1FF3102D2A64521
:1004200000F2BB800846A4EB0E0440EA03409CE7C0
:10043000C6F12007B34022FA07FC4CEA030C20FA6D
:1004400007F401FA06F31C43F9404FEA1C4900FA8D
:1004500006F3B1FBF9F8200C1FFA8CFE09FB18110A
:1004600040EA014108FB0EF0884202FA06F20BD97D
:100470001CEB010108F1FF3A80F08880884240F2CD
:100480008580A8F102086144091AA4B2B1FBF9F011
:1004900009FB101144EA014100FB0EFE8E4508D90C
:1004A0001CEB010100F1FF346CD28E456AD9023891
:1004B000614440EA0840A0FB0294A1EB0E01A14276
:1004C000C846A64656D353D05DB1B3EB080261EBE4
:1004D0000E0101FA07F722FA06F3F1401F43C5E9BE
:1004E000007100263146BDE8F087C2F12003D840F4
:1004F0000CFA02FC21FA03F3914001434FEA1C4736
:100500001FFA8CFEB3FBF7F007FB10360B0C43EA27
:10051000064300FB0EF69E4204FA02F408D91CEBD7
:10052000030300F1FF382FD29E422DD902386344D5
:100530009B1B89B2B3FBF7F607FB163341EA034175
:1005400006FB0EF38B4208D91CEB010106F1FF38C4
:1005500016D28B4214D9023E6144C91A46EA0046BB
:1005600038E72E46284605E70646E3E61846F8E64D
:100570004B45A9D2B9EB020864EB0C0E0138A3E796
:100580004646EAE7204694E74046D1E7D0467BE777
:10059000023B614432E7304609E76444023842E7EF
:1005A000704700BF08B50C4B1B78012B02D000230D
:1005B0008B7308BD094AB2F900300B80B2F90220F2
:1005C0004A8001208873194605482BF0A9FF024B89
:1005D00000221A70EDE700BF3C040020C803002091
:1005E0001CD4020808B5431E012B05D80846114645
:1005F00000F09AFFC0B208BD024B09221A604FF00A
:10060000FF30F8E748EF0020012800D0704708B518
:1006100003482CF00BF8034B01221A7008BD00BFF1
:1006200030D402083C04002072B6FEE700B599B051
:10063000302200210DEB02002BF08AFE00230793ED
:10064000089309930A930B930393049305930693DA
:100650000193284A116C41F080511164126C02F030
:1006600080520192019A0293234B1A6842F480420D
:100670001A601B6803F480430293029B0D230C93C2
:100680004FF480330D9301230E93119302231293A1
:100690004FF480021392192214924FF4A87215920B
:1006A0001693072317930CA801F0A6F8E0B90F23BF
:1006B000079302230893002309934FF4A0530A934E
:1006C0004FF480530B93052107A801F0E3FA68B9B2
:1006D000022303934FF48073069303A801F0A0FB59
:1006E00030B919B05DF804FBFFF79EFFFFF79CFFE0
:1006F000FFF79AFF003802400070004008B502F092
:10070000A5F8FFF793FF00F0D3FB00F0C3FC00F067
:10071000FBFC00F009FE184B93E8070000F0D6FA46
:1007200007F00AFF00F07AF9144C20461FF05FFD35
:10073000134B63600123237020461FF06DFD114CA5
:1007400020462BF0E5F820462BF05EF920462BF0F2
:10075000D9F802F0A1F80C4B1B68C01A6328F8D92D
:100760000A490B4800F056FB21F0D6FF02F094F83E
:10077000054B1860EDE700BF0000002014040020C6
:10078000A5050008DC030020380400203404002004
:10079000C80300204FF0C04318807047014B1880F9
:1007A000704700BF00000860F8B505460F461446C4
:1007B0001E462A20FFF7EEFF380AFFF7EFFFF8B2D8
:1007C000FFF7ECFF300AFFF7E9FFF0B2FFF7E6FFB3
:1007D0002B20FFF7DFFF280AFFF7E0FFE8B2FFF763
:1007E000DDFF200AFFF7DAFFE0B2FFF7D7FF2C208A
:1007F000FFF7D0FFF8BD10B50446BE20FFF7CAFFD3
:100800000620FFF7CBFF2046FFF7C8FF0120FFF7C8
:10081000C5FF10BD08B50120FFF7BCFF2920FFF779
:10082000B9FFE220FFF7B6FF1D20FFF7B7FF022058
:10083000FFF7B4FF0420FFF7B1FFE020FFF7AAFFA6
:100840000120FFF7ABFF782002F02CF8E020FFF743
:10085000A1FF0320FFF7A2FF782002F023F8012078
:10086000FFF798FF782002F01DF8E620FFF792FFCF
:100870000120FFF793FFEB20FFF790FF8420FFF7A5
:100880008DFFB020FFF786FF2020FFF787FF202095
:10089000FFF784FF0120FFF781FFDF20FFF77EFFD6
:1008A0000120FFF77BFF0F20FFF778FF2D20FFF7D8
:1008B00075FFB420FFF76EFF0220FFF76FFF1320D4
:1008C000FFF76CFF0020FFF769FF0820FFF766FFC6
:1008D0002B20FFF763FF0020FFF760FF0220FFF7E8
:1008E0005DFF0020FFF75AFFB620FFF753FF0120FE
:1008F000FFF754FF2020FFF751FF0020FFF74EFFC6
:100900000420FFF74BFF0C20FFF748FF0020FFF704
:1009100045FF0220FFF742FFB820FFF73BFF0F2003
:10092000FFF73CFF0120FFF739FFBA20FFF732FF46
:100930000120FFF733FFBA20FFF72CFF0320FFF75A
:100940002DFFBE20FFF726FF0520FFF727FFFF2022
:10095000FFF724FF0120FFF721FF3620FFF71AFFE2
:10096000BC20FFF717FF4020FFF718FF8020FFF79C
:1009700015FF4020FFF712FF0120FFF70FFF0320B4
:10098000FFF70CFFF020FFF705FF0320FFF706FF3E
:10099000FF20FFF730FF2920FFF7FCFE08BDFEE730
:1009A00008B502481FF00BFC08BD00BF684F0020CF
:1009B00038B50C461546B1F90200B1F90010B4F98A
:1009C0000620B4F904309BB292B289B280B2FFF72C
:1009D000EBFEB4F90420B4F90030D21AB4F90630B1
:1009E000B4F902105B1A013304490D6002FB0333B2
:1009F000034A2946034801F043FD38BD404F00201B
:100A0000000008603451002008B513460A46194614
:100A100001482BF085FD08BD44D4020838B500F02C
:100A2000C3FA184C184A0021204601F04DFE174A1F
:100A30000421204601F048FE00221146382001F032
:100A400085FE382001F0BAFEFFF7E4FE104D4FF4AA
:100A50009653104A104928461FF0D6FA0F4C2046EC
:100A60001FF0B7FA65600E4BA3610E4BE3604FF4C5
:100A7000F07323804FF48873638020461FF0D2FA0E
:100A800038BD00BF34510020A10900089F090008AB
:100A9000444F0020C029002040040020684F00205F
:100AA000090A0008B109000800230B4A82F8B8308F
:100AB00008E0094AD15C92F8B800014482F8B81005
:100AC0000133DBB2B72BF4D9034A92F8B8305B425A
:100AD00082F8B830704700BF0C00002000B587B026
:100AE000002301930293039304930593012301933D
:100AF00001A9034801F03EFA07B05DF804FB00BF0E
:100B00000010024000B587B00023019302930393C5
:100B10000493059301230193029301A9024801F074
:100B200029FA07B05DF804FB0010024008B528B1AF
:100B300001220221044801F0A9FB08BD0022022184
:100B4000014801F0A3FBF8E70010024008B528B106
:100B500001221146044801F099FB08BD0022012141
:100B6000014801F093FBF8E70010024008B501F0DE
:100B700099FE08BD08B5FFF7B1FF0020FFF7D6FFCB
:100B80001420FFF7F3FF0020FFF7E0FF3220FFF70C
:100B9000EDFF0120FFF7CAFF6420FFF7E7FFFFF733
:100BA000B1FF6420FFF7E2FF08BD000000B583B08D
:100BB000134640004FF0FF3200920A4600F0FE015B
:100BC000094803F091FD012801D003D850B903B0C2
:100BD0005DF804FB0238C0B2012801D80220F6E714
:100BE0000120F4E70120F2E7E851002010B5FFF7FB
:100BF0005BFF084C8023237047236370BA220649A9
:100C0000A01C2BF097FBBC2221461420FFF7CEFF3F
:100C100010BD00BF6C5000200C00002008B5054935
:100C200080230B7040234B70887003221420FFF741
:100C3000BDFF08BD6C50002008B5054981230B702D
:100C40004E234B70887003221420FFF7AFFF08BDBE
:100C50006C50002000B583B0134640004FF0FF32C7
:100C600000920A4600F0FE01094803F0F9FD012850
:100C700001D003D850B903B05DF804FB0238C0B20C
:100C8000012801D80220F6E70120F4E70120F2E76D
:100C9000E851002010B504460A4981230B70402317
:100CA0004B7002221420FFF781FF00B110BD042217
:100CB00005491420FFF7CEFF0028F7D1024B1B682F
:100CC0002360F3E76C500020A44F002070B58CB077
:100CD00001AB83E8070000240794089409940A9460
:100CE0000B940594394B1A6B42F010021A631B6B7C
:100CF00003F010030593059B354D2246032128463A
:100D000001F0C4FA032307930123089309940A947A
:100D100007A9284601F02EF9BDF804302D4A53707A
:100D20001B0A9370BDF80630D3701B0A13719DF82F
:100D30000830537194719DF80A30DB015BB29371F6
:100D40009DF8091043EA81135BB293719DF80B1073
:100D500043EAC1035BB293719DF80C1043EA81032F
:100D60009371FFF707FF069406A8FFF793FF044669
:100D7000194B187030BB069B1BB3FFF7FBFEFFF748
:100D800035FF0446144B1870E0B90020FFF746FF0A
:100D90002E460121284601F0DFF9012307934FF485
:100DA000881308930025099507A9304601F0E2F859
:100DB0002A462946062001F0C9FC062001F0FEFC67
:100DC00000E0022420460CB070BD00BF0038024095
:100DD000001002400C000020A04F002010B5044677
:100DE0000A4981230B704E234B7002221420FFF717
:100DF000DDFE00B110BD012205491420FFF72AFFD6
:100E00000028F7D1024B1B782370F3E76C500020C9
:100E1000A44F00202DE9F04182B006460F460DF1A7
:100E20000700FFF7DBFF804628B99DF807309DF9E2
:100E30000720002A03DB404602B0BDE8F08103F042
:100E40000F033B7073BB0020FFF7F6FEF3E704F5DA
:100E500081530A3343F3571313490B7004F12A03E8
:100E6000DB004B7002221420FFF7A0FE0F4D06227C
:100E700029461420FFF7EEFE06EB84022B7826F8B5
:100E80002430697803EB012326F82430AB785380B3
:100E9000E97803EB012353800134E4B23B78A342A9
:100EA000D5D8D0E70446F9E76C500020A44F0020C5
:100EB000F0B58DB000240794089409940A940B941B
:100EC0000194354B1A6B42F010021A631A6B02F050
:100ED00010020192019A02941A6B42F004021A6302
:100EE0001A6B02F004020292029A03941A6B42F007
:100EF00080021A631A6B02F080020392039A049430
:100F00001A6B42F001021A631A6B02F0010204929A
:100F1000049A05941A6B42F002021A631A6B02F0EB
:100F200002020592059A06941A6B42F008021A63AF
:100F30001B6B03F008030693069B184F22464FF4E1
:100F40008051384601F0A2F9154E22460121304663
:100F500001F09CF9602307930894099407A91148AC
:100F600001F008F84FF48053079301250895099480
:100F70000A9407A9384600F0FDFF079508950994E3
:100F80000A9407A9304600F0F5FF2A462946304664
:100F900001F07CF90DB0F0BD00380240000C0240B9
:100FA000000402400000024000B583B0002301931A
:100FB000164A116B41F480011163126B02F4800236
:100FC0000192019A1248134A0260436080228260B3
:100FD0004FF40072C2604FF4806202614FF400620D
:100FE00042614FF400528261C3614FF400320262E9
:100FF000042242628362C362036301F0DBF910B929
:1010000003B05DF804FBFFF70FFBF9E7003802407F
:101010003451002010640240F0B587B000230193E2
:101020000293039304930593164B1B680BB107B00F
:10103000F0BD144B01221A6000260096124B9A6BE9
:1010400042F001029A639B6B03F001030093009B43
:101050004FF68073019302270297032504950C2411
:10106000059401A9094800F085FF4EF6B37301937A
:10107000029703960495059401A9054800F07AFFAC
:10108000D5E700BF94510020003802400010024014
:10109000000C024010B588B0002201920292039227
:1010A000049205920692079214484FF02043036081
:1010B00003F5827343608260C26002611021416166
:1010C0008261C261026242624FF480538362C262F3
:1010D00002634263826342640F2301930293FF24FD
:1010E0000394049305911123069301A902F0D4FF00
:1010F00008B908B010BDFFF797FAFAE79851002039
:1011000008B5FFF789FF08BD08B50B480B4B036016
:101110000B4B436000238360C3604FF48042026145
:1011200043618361C361036203F000FA00B908BD43
:10113000FFF77AFAFBE700BFE851002000540040B7
:10114000A08601002DE9F0438BB0002305930693A0
:101150000793089309930368374A934205D0374AA7
:10116000934227D00BB0BDE8F08300250095344CA6
:10117000236B43F002032363236B03F0020300930A
:10118000009BC02305931223069301230793032397
:1011900008930423099305A92A4800F0EBFE019562
:1011A000236C43F400132364236C03F400130193B2
:1011B000019BD7E700250295214C236B43F00403E4
:1011C0002363236B03F004030293029B0395236BB9
:1011D00043F001032363236B03F001030393039B99
:1011E0004FF4007305934FF01209CDF818904FF0AB
:1011F0000108CDF81C80032708970426099605A945
:10120000114800F0B7FE4FF480730593CDF81890A5
:10121000CDF81C800897099605A90C4800F0AAFE95
:101220000495236C43F400032364236C03F400034C
:101230000493049B96E700BF00540040005C00400C
:101240000038024000040240000802400000024052
:10125000FEE7FEE7FEE7FEE7FEE7704770477047F0
:1012600008B501F00DFB01201FF02AF808BD08B5F4
:10127000012001F011F808BD08B5024801F036F967
:1012800008BD00BF3451002008B5024801F0E0FC61
:1012900008BD00BF0C67002082B0002100910B4BFD
:1012A0005A6C42F480425A645A6C02F480420092B2
:1012B000009A01911A6C42F080521A641B6C03F080
:1012C00080530193019B02B0704700BF0038024079
:1012D00030B587B0002401940294039404940594DB
:1012E00000940F4B1A6B42F001021A631B6B03F060
:1012F00001030093009B0B4D22464FF4004128460A
:1013000000F0C4FF4FF400430193012302930394C0
:10131000049401A9284600F02DFE07B030BD00BF9F
:10132000003802400000024008B5FFF7D1FF00225C
:101330004FF40041164800F0A9FF0A2001F0B2FA6C
:1013400000221449144803F00DFCA0B913491248B7
:1013500003F01FFC90B912490F4804F0AEFA80B9AF
:101360000D4803F02DFC78B901224FF400410848E4
:1013700000F08CFF08BDFFF757F9E7E7FFF754F9D6
:10138000E9E7FFF751F9EBE7FFF74EF9ECE700BFAC
:1013900000000240C80000203C520020380100201C
:1013A0001801002012230B8000487047E400002041
:1013B00004230B8000487047F8000020002393426C
:1013C0001ED200B510E00CF1370C01F813C000017B
:1013D0004FEA430C0CF1010C4FF0000E01F80CE049
:1013E0000133DBB2934209D24FEA107CB0F1204FB7
:1013F000E9D20CF1300C01F813C0E8E75DF804FB0A
:101400007047000038B50B4BD3F8100AD3F8144AD4
:10141000D3F8183AC01800D138BD074D0822A91CCE
:10142000FFF7CCFF042205F112012046FFF7C6FFAB
:10143000F2E700BF0070FF1FFC00002008B51A2370
:101440000B80FFF7DFFF014808BD00BFFC00002054
:1014500008B50A4628B90549054804F052F803487A
:1014600008BD0249024804F04CF8F8E70C5500208A
:1014700060D4020810B50A46034C2146034804F024
:1014800040F8204610BD00BF0C55002078D402085B
:1014900008B50A4628B90549054804F032F803485A
:1014A00008BD0249024804F02CF8F8E70C5500206A
:1014B0008CD4020808B50A4628B90549054804F045
:1014C00020F8034808BD0249024804F01AF8F8E77A
:1014D0000C55002098D40208002070470020704767
:1014E0000020704710B50146044C204604F0F7F97F
:1014F000204604F017FA002010BD00BF3C52002027
:1015000010B5064C00220649204604F0DDF90549D5
:10151000204604F0E4F9002010BD00BF3C5200203A
:101520000C5F00200C570020094BD3F8BC32D3F8D5
:1015300014320BB10120704710B5054C0A46014624
:10154000204604F0C1F9204604F0D2F910BD00BFD6
:101550003C52002030B589B00023039304930593D7
:10156000069307930368B3F1A04F01D009B030BDD3
:1015700000250195164C236B43F001032363236B75
:1015800003F001030193019B4FF4C0530393022323
:101590000493032306930A23079303A90D4800F03D
:1015A000E9FC636B43F0800363630295636C43F46F
:1015B00080436364636C03F480430293029B2A4676
:1015C0002946432001F0C2F8432001F0F7F8CDE7A7
:1015D000003802400000024008B500F57171D0F8F3
:1015E000040403F002FB08BD08B5C1EBC10300EB26
:1015F0008303D3F80822D0F8040403F022FB08BDCB
:1016000008B5C1EBC10300EB83039A6CD0F8040466
:1016100003F053FB08BD08B5D0F8040403F0F3FB56
:1016200008BD10B50446C3683BB1022B01D10121AE
:1016300004E0FEF7F9FF012100E00021D4F80404E2
:1016400003F0C7FBD4F8040403F096FB10BD0000C0
:1016500010B50446D0F8040403F0BEFB2268D2F8AB
:10166000003E43F00103C2F8003E236A23B1034A5F
:10167000136943F00603136110BD00BF00ED00E0E5
:1016800008B5D0F8040403F0B1FB08BD08B5D0F8E4
:10169000040403F0E0FB08BD08B5D0F8040403F02F
:1016A000C6FB08BD08B5D0F8040403F0E8FB08BD8C
:1016B00008B5D0F8040403F0E4FB08BD02780AB1D1
:1016C0000020704710B503461548C0F80434C3F82D
:1016D000C4024FF0A0430360042343600222C260AF
:1016E000002303618261C36103624362C3620363D7
:1016F00001F054F980B90A4C8021204601F081FEA6
:1017000040220021204601F056FE80220121204681
:1017100001F051FE002010BDFEF786FFEBE700BF91
:101720000C670020D0F8C43211F0800F08D101F00E
:101730007F01C1EBC10103EB810191F8FE0170470C
:1017400001F07F01C1EBC10103EB810191F83E0083
:10175000704708B5D0F8C40201F076FD08BD032833
:1017600005D8DFE800F005040205012070470320DA
:10177000704708B5D0F8C40201F0A7F9FFF7EFFFF2
:1017800008BD08B594461A466346D0F8C40201F075
:10179000AEFCFFF7E4FF08BD08B5D0F8C40201F0C5
:1017A000EBFCFFF7DCFF08BD08B5D0F8C40201F080
:1017B00083FDFFF7D4FF08BD08B5D0F8C40201F0DF
:1017C000BFFDFFF7CCFF08BD08B5D0F8C40201F09B
:1017D0007AFCFFF7C4FF08BD08B5D0F8C40201F0D9
:1017E0003CFDFFF7BCFF08BD08B5D0F8C40201F00E
:1017F000FCFCFFF7B4FF08BD002800F0E08170B5E5
:1018000082B00446036813F0010F3BD09F4B9B68E6
:1018100003F00C03042B2CD09C4B9B6803F00C03AF
:10182000082B21D06368B3F5803F4FD0B3F5A02FCC
:1018300052D0964B1A6822F480321A601A6822F449
:1018400080221A606368002B50D001F025F805460D
:101850008E4B1B6813F4003F14D101F01DF8401BA0
:101860006428F5D90320B1E1884B5B6813F4800F3D
:10187000D8D0864B1B6813F4003F03D06368002B5D
:1018800000F09F81236813F0020F54D07F4B9B68B8
:1018900013F00C0F3ED07D4B9B6803F00C03082B1C
:1018A00033D0E368002B68D0794B01221A6000F036
:1018B000F3FF0546754B1B6813F0020F54D100F07F
:1018C000EBFF401B0228F5D903207FE16F4A136824
:1018D00043F480331360B5E76C4B1A6842F48022FE
:1018E0001A601A6842F480321A60ABE700F0D4FF45
:1018F0000546664B1B6813F4003FC3D000F0CCFFD5
:10190000401B6428F5D9032060E1604B5B6813F449
:10191000800FC6D15D4B1B6813F0020F03D0E36844
:10192000012B40F05081594A136823F0F8032169D4
:1019300043EAC1031360236813F0080F42D06369C0
:101940006BB3534B0122C3F8802E00F0A5FF054670
:101950004E4B5B6F13F0020F34D100F09DFF401B24
:101960000228F5D9032031E1484A136823F0F8032F
:10197000216943EAC1031360DDE7454B00221A6089
:1019800000F08AFF0546414B1B6813F0020FD2D0CE
:1019900000F082FF401B0228F5D9032016E13C4BE2
:1019A0000022C3F8802E00F077FF0546374B5B6FAF
:1019B00013F0020F06D000F06FFF401B0228F5D98C
:1019C000032003E1236813F0040F77D02F4B1B6C27
:1019D00013F0805F33D1002301932C4B1A6C42F03B
:1019E00080521A641B6C03F080530193019B012504
:1019F000284B1B6813F4807F23D0A368012B34D0BD
:101A0000052B38D0214B1A6F22F001021A671A6F8A
:101A100022F004021A67A368002B3DD000F03CFFBF
:101A200006461A4B1B6F13F0020F46D100F034FF2D
:101A3000801B41F288339842F3D90320C6E0002589
:101A4000D6E7144A136843F48073136000F024FF50
:101A50000646104B1B6813F4807FCED100F01CFFAC
:101A6000801B0228F5D90320B0E0084A136F43F029
:101A700001031367CFE7054B1A6F42F004021A67A0
:101A80001A6F42F001021A67C5E700BF0038024032
:101A9000000047420070004000F0FEFE0646524B38
:101AA0001B6F13F0020F08D000F0F6FE801B41F20E
:101AB00088339842F3D9032088E0EDB9A369002B5D
:101AC00000F08380484A926802F00C02082A51D044
:101AD000022B17D0454B00221A6600F0DDFE0446AB
:101AE000414B1B6813F0007F42D000F0D5FE001B75
:101AF0000228F5D9032069E03B4A136C23F0805398
:101B00001364DBE7394B00221A6600F0C5FE054678
:101B1000354B1B6813F0007F06D000F0BDFE401B64
:101B20000228F5D9032051E0E369226A1343626A6F
:101B300043EA8213A26A5208013A43EA0243E26A84
:101B400043EA0263284A5360284B01221A6600F0D8
:101B5000A3FE0446244B1B6813F0007F06D100F05F
:101B60009BFE001B0228F5D903202FE000202DE06A
:101B700000202BE0012B2BD01B4B5B6803F4800172
:101B8000E269914226D103F03F02216A8A4223D1C1
:101B9000616A47F6C0721A40B2EB811F1ED103F48E
:101BA0004031A26A5208013AB1EB024F18D103F05A
:101BB0007063E26AB3EB026F14D1002006E00120EB
:101BC0007047012002E0012000E0002002B070BD5B
:101BD0000120FBE70120F9E70120F7E70120F5E705
:101BE0000120F3E70120F1E70038024000004742FE
:101BF00008B5254B9B6803F00C03042B3FD0082B42
:101C00003FD1214B5A6802F03F025B6813F4800F0A
:101C100012D01D4B5968C1F388111C480023A1FB49
:101C20000001FEF73DFB184B5B68C3F30143013332
:101C30005B00B0FBF3F025E0134B5968C1F3881C3F
:101C40004FEA4C11B1EB0C006EEB0E0E4FEA8E1307
:101C500043EA90638101091A63EB0E03DB0043EA58
:101C60005173C90011EB0C0C43F1000399020023DE
:101C70004FEA8C2041EA9C51FEF712FBD3E7034860
:101C800000E0034808BD00BF0038024040787D01F5
:101C90000024F400002800F09B8070B50D46044637
:101CA0004F4B1B6803F007038B4208D2CBB24C4A60
:101CB0001370136803F007038B4240F08B80236896
:101CC00013F0020F17D013F0040F04D0454A9368A5
:101CD00043F4E0539360236813F0080F04D0414AA3
:101CE000936843F4604393603E4A936823F0F003A3
:101CF000A1680B439360236813F0010F32D063682F
:101D0000012B21D09A1E012A25D9364A126812F0D9
:101D1000020F61D033498A6822F0030213438B60BB
:101D200000F0BAFD06462F4B9B6803F00C03626877
:101D3000B3EB820F16D000F0AFFD801B41F2883369
:101D40009842F0D9032042E0264A126812F4003F7C
:101D5000E0D101203BE0234A126812F0007FD9D184
:101D6000012034E01E4B1B6803F00703AB4207D988
:101D7000EAB21B4B1A701B6803F00703AB422DD16C
:101D8000236813F0040F06D0164A936823F4E05337
:101D9000E1680B439360236813F0080F07D0114AE2
:101DA000936823F46043216943EAC1039360FFF71A
:101DB0001FFF0C4B9B68C3F303130B4AD35CD84043
:101DC0000A4B18600A4B186800F01AFD002070BD1D
:101DD000012070470120FAE70120F8E70120F6E72B
:101DE000003C024000380240B0D402083401002018
:101DF00030010020014B1868704700BF34010020FB
:101E000008B5FFF7F7FF044B9B68C3F38223034A2F
:101E1000D35CD84008BD00BF00380240C0D40208DF
:101E200030B583B00446036813F0050F06D123686C
:101E300013F0020F2ED1002003B030BD4A4B002218
:101E40009A6600F029FD0546484B1B6813F0006FA9
:101E500006D000F021FD431B022BF5D90320EBE750
:101E60006268A3681B0743EA8213404AC2F88430C1
:101E70003D4B01229A6600F00FFD05463B4B1B6867
:101E800013F0006FD3D100F007FD431B022BF5D9EF
:101E90000320D1E700230193344B1A6C42F08052A7
:101EA0001A641B6C03F080530193019B304A136842
:101EB00043F48073136000F0EFFC05462C4B1B6865
:101EC00013F4807F06D100F0E7FC431B022BF5D909
:101ED0000320B1E7254B1B6F13F4407314D0E26865
:101EE00002F440729A420FD0204B1A6F22F44072D3
:101EF0001D490120C1F8400E0020C1F8400E1A67AC
:101F00001B6F13F0010F13D1E36803F44072B2F5B5
:101F1000407F1ED0154A936823F4F8139360134949
:101F20000B6FE268C2F30B0213430B67002083E7D9
:101F300000F0B2FC05460D4B1B6F13F0020FE3D10E
:101F400000F0AAFC401B41F288339842F3D90320E9
:101F500072E706498A6822F4F81223F0704323F4EA
:101F6000407313438B60DAE70000474200380240B9
:101F70000070004000230F2B00F2E48070B582B0A7
:101F800060E085685E000324B44025EA0405CC685F
:101F9000B4402C438460456825EA02054C68C4F3CC
:101FA00000129A402A4342605AE0DC08083450F894
:101FB000246003F0070295000F22AA4026EA020ED1
:101FC0000A69AA4042EA0E0240F824205CE0072297
:101FD00000E0002202FA0EF22A4302345A4D45F87C
:101FE00024205A4A14686FEA0C0224EA0C054E6851
:101FF00016F4803F01D04CEA0405544C2560646817
:1020000002EA04054E6816F4003F01D04CEA0405CC
:102010004E4C6560A46802EA04054E6816F4801F01
:1020200001D04CEA0405494CA560E46822404D68A3
:1020300015F4001F01D04CEA0402444CE260013365
:102040000F2B7DD801229A400C6804EA020C32EA78
:102050000404F4D14C6804F00304013C012C90D931
:102060004A6802F00302032A09D0C4685D00032213
:10207000AA4024EA02048A68AA402243C2604A684D
:1020800002F00302022A90D004684FEA430E0322B2
:1020900002FA0EF224EA02044A6802F0030202FA8B
:1020A0000EF2224302604A6812F4403FC7D0002279
:1020B0000192274A546C44F480445464526C02F4F4
:1020C00080420192019A9C08A51C1F4A52F8255093
:1020D00003F003024FEA820E0F2202FA0EF225EA03
:1020E00002051C4A90423FF474AF02F580629042B0
:1020F0001AD002F58062904218D002F580629042B8
:1021000016D002F58062904214D002F580629042AF
:1021100012D002F58062904210D002F580629042A7
:102120003FF455AF082255E7012253E7022251E759
:1021300003224FE704224DE705224BE7062249E739
:1021400002B070BD704700BF00380140003C014044
:10215000003802400000024000230F2B00F28F8065
:10216000F0B52DE0072500E0002505FA0CFCA4459C
:1021700069D004685D004FF0030C0CFA05FC24EAFA
:102180000C0404604FEAD30E0EF1080E50F82E40F6
:1021900003F00705AE000F25B54024EA050440F81A
:1021A0002E40C46824EA0C04C460446824EA020295
:1021B0004260826822EA0C02826001330F2B5DD8F4
:1021C00001229A4002EA010632EA0104F5D14FEAFF
:1021D000930E0EF102052A4C54F8254003F0030C2F
:1021E0004FEA8C0C0F2505FA0CF73C40254DA84210
:1021F000BAD005F58065A84219D005F58065A842DA
:1022000017D005F58065A84215D005F58065A84270
:1022100013D005F58065A84211D005F58065A84268
:102220000FD005F58065A8429CD008259DE70125C3
:102230009BE7022599E7032597E7042595E7052500
:1022400093E7062591E7104C256825EA06052560E9
:10225000656825EA06056560A56825EA0605A560A6
:10226000E56825EA0606E660054E0EF1020456F81A
:10227000245025EA070546F824507AE7F0BD704758
:102280000038014000000240003C01400AB1816179
:10229000704709048161704708B5054B5B690342CB
:1022A00000D108BD024B5861FEF7AEF9F9E700BF57
:1022B000003C014030B405682C6824F480242C6074
:1022C000046863608368402B05D0036899600368E5
:1022D000DA6030BC704703689A600368D960F8E739
:1022E00010B40368D9B210390C4AA2FB014212099A
:1022F0000B4CA25CC2655F2909D923F47F7323F0DC
:10230000030304338365806D5DF8044B704723F449
:102310007F7323F003038365F5E700BFABAAAAAA86
:10232000A8D40208836A826992B9012B0AD0022BD1
:1023300002D00BB100207047C36A13F0807F28D110
:1023400000207047C36AB3F1C07F24D000207047DB
:10235000B2F5005F09D0022B25D9032B25D1C36A22
:1023600013F0807F23D100207047032B03D8DFE8D0
:1023700003F01404140A00207047C36A13F0807F2E
:102380000DD100207047C36AB3F1C07F09D000208F
:1023900070470120704701207047012070470120DD
:1023A00070470120704701207047002070470120CE
:1023B0007047000070B5044600F06EFA002C5BD048
:1023C0000546022384F83530002384F8343022682F
:1023D000136823F00103136023681A6812F0010FD9
:1023E0000AD000F059FA431B052BF5D92023636569
:1023F000032084F8350070BD1A68204810406168D9
:10240000A2680A43E1680A4321690A4361690A43F1
:10241000A1690A43E1690A43216A0A430243616AE6
:1024200004291ED01A602668756925F00705636ABD
:102430001D43042B07D1A36A1D43E36A1BB1204649
:10244000FFF770FF90B975612046FFF749FFE26D15
:102450003F239340836000206065012384F835307A
:10246000C9E7E16A206B01430A43DBE74023636568
:10247000012084F83500BEE70120BCE73F8010F062
:1024800038B50446856D90F8340001282BD0012022
:1024900084F8340094F83500C0B2012804D0002339
:1024A00084F83430022038BD022084F83500002042
:1024B00060652046FFF7FEFEE26D3F239340AB6070
:1024C0002268136843F016031360236C23B122685B
:1024D000136843F0080313602268136843F0010394
:1024E00013600020DFE70220DDE70000F0B583B0D5
:1024F000044600230193724B1D68724BA3FB053504
:10250000AD0A876D3E68C26D08239340334210D0F8
:1025100003681A6812F0040F0BD01A6822F0040244
:102520001A60C26D08239340BB60436D43F0010302
:102530004365E26D01239340334209D0226852691A
:1025400012F0800F04D0BB60636D43F0020363653B
:10255000E26D04239340334209D02268126812F0DE
:10256000020F04D0BB60636D43F004036365E26D4A
:1025700010239340334224D02268126812F0080FCF
:102580001FD0BB6023681A6812F4802F0DD01B681F
:1025900013F4002F04D1236C9BB12046984710E020
:1025A000A36C73B1204698470BE01A6812F4807F41
:1025B00003D11A6822F008021A60236C0BB120467E
:1025C0009847E26D20239340334255D02268126829
:1025D00012F0100F50D0BB6094F83530DBB2052BF1
:1025E0000ED023681A6812F4802F33D01B6813F4BE
:1025F000002F2AD1636C002B3ED0204698473BE049
:102600002268136823F0160313602268536923F0CD
:1026100080035361236CA3B12268136823F008037D
:102620001360E26D3F239340BB60012384F8353093
:10263000002384F83430236D002B3FD02046984788
:102640003CE0A36C002BE7D1EBE7E36BA3B12046A2
:10265000984711E01A6812F4807F09D11A6822F0B5
:1026600010021A60012384F83530002384F83430D6
:10267000E36B0BB120469847636DFBB1636D13F0BC
:10268000010F17D0052384F835302268136823F032
:1026900001031360019B01330193AB4204D823680B
:1026A0001B6813F0010FF5D1012384F835300023A6
:1026B00084F83430E36C0BB12046984703B0F0BD8A
:1026C00034010020B5814E1B034690F834000128E8
:1026D00027D0012083F8340093F83500C0B20128D8
:1026E00004D00120002283F834207047052916D831
:1026F000DFE801F00306090C0F12DA630846F1E780
:102700001A640020EEE75A640020EBE79A64002088
:10271000E8E7DA640020E5E71A650020E2E7002038
:10272000E0E7022070470000074AD36823F4E06323
:102730001B041B0C000200F4E060034343F0BF6382
:1027400043F40033D360704700ED00E000B5194B4F
:10275000DB68C3F30223C3F1070CBCF1040F28BFED
:102760004FF0040C03F1040EBEF1060F18D9033B21
:102770004FF0FF3E0EFA0CFC21EA0C0199400EFAD4
:1027800003F322EA0303194300280BDB0901C9B252
:1027900000F1604000F5614080F800135DF804FB33
:1027A0000023E5E700F00F000901C9B2024B1954FC
:1027B000F4E700BF00ED00E014ED00E0002807DBC7
:1027C00000F01F02400901239340024A42F82030E2
:1027D000704700BF00E100E00138B0F1807F0BD20C
:1027E0004FF0E0235861054AF02182F823100020C1
:1027F000986107221A6170470120704700ED00E0E0
:1028000010B504460E4B18784FF47A73B3FBF0F30F
:102810000C4A1068B0FBF3F0FFF7DEFF68B90F2C2D
:1028200001D901200AE0002221464FF0FF30FFF7D6
:102830008DFF054B1C60002000E0012010BD00BF93
:102840002C010020340100203001002008B50B4B82
:102850001A6842F400721A601A6842F480621A60C0
:102860001A6842F480721A600320FFF75DFF0020AF
:10287000FFF7C6FFFEF710FD002008BD003C024038
:10288000034A1168034B1B780B441360704700BF69
:10289000146B00202C010020014B1868704700BF0A
:1028A000146B002038B50446FFF7F6FF0546B4F177
:1028B000FF3F02D0044B1B781C44FFF7EDFF401B89
:1028C000A042FAD338BD00BF2C0100202DE9F0430F
:1028D00083B0D0F80080C1EBC10300EB83035A6DD5
:1028E0001B6D9A4254D807460C469B1AC1EBC10295
:1028F00000EB8202526C9A4200D31A4602F103099D
:102900004FEA990915E006F103094FEA9909C4EB6A
:10291000C40507EB8505A96C3B7C0093B3B2E2B21A
:10292000404601F0BBF8AB6C3344AB646B6D334491
:102930006B6508EB441303F510639B699BB24B4531
:1029400012D3C4EBC40207EB8202516D136D99429E
:102950000AD24BB15B1AC4EBC40207EB8202566C7D
:102960009E42D0D31E46CEE7C4EBC40007EB8007DF
:102970003A6D7B6D9A420FD804F00F040123A340F7
:10298000D8F8344824EA0304C8F83448002000E0AA
:10299000012003B0BDE8F0830020FAE770B58AB0EB
:1029A000002800F090800546046890F8BD333BB3E2
:1029B000032385F8BD33E36B13F4807F01D100233B
:1029C0002B61286800F006FE2C4654F8106BEC468C
:1029D0000FCCACE80F000FCCACE80F0094E803007C
:1029E0008CE803002B1D0ECB304600F035FD04466D
:1029F00058B1022385F8BD33012420460AB070BDCA
:102A000080F8BC33FEF7A6FDD2E70021286801F06C
:102A10005FFA234616E0C3EBC30205EB82020121F5
:102A200082F83D1082F83C30A2F84230002182F852
:102A30003F1051649164C3EBC30205EB8202116540
:102A40000133DBB269688B42E5D316E0C4EBC40303
:102A500005EB8303002283F8FD2183F8FC4183F812
:102A6000FF21C3F80422C3F80822C4EBC40305EB1A
:102A70008303C3F810220134E4B2A142E6D82C4605
:102A800054F8106BEC460FCCACE80F000FCCACE860
:102A90000F0094E803008CE803002B1D0ECB30469A
:102AA00000F0D4FD044620B1022385F8BD33012493
:102AB000A3E7002385F83830012385F8BD33286863
:102AC00001F0C3F999E7012497E7026890F8BC3355
:102AD000012B19D010B50446012380F8BC33836A5A
:102AE000012B09D0206800F06FFD206801F09FF9EC
:102AF000002084F8BC0310BD8369012BF2D0936BD6
:102B000043F480339363EDE70220704770B50446C9
:102B10000D460068066C00EB411303F530639A68BC
:102B20002169012911D034498E424ED03DB9C5EBFF
:102B3000C50304EB8303D3F81032002B56D0E9B25F
:102B40002046FEF751FD002070BD12F0080F09D09D
:102B50002A498E42F7D912F4004FF4D04FF40042C4
:102B60009A60F0E712F0200F02D020229A60EAE784
:102B700012F0280FE7D121498E4206D912F4004FF6
:102B800003D04FF400429A60DDE7C5EBC50204EBC9
:102B90008202D2F804121B69C3F31203CB1AC2F8E3
:102BA0001432D2F808320B44C2F8083215B9D2F800
:102BB000103223B1E9B22046FEF716FDC3E704F553
:102BC0007172012101F0C6F9F4E712F4004F03D04D
:102BD0004FF400429A60B6E712F0200F01D0202295
:102BE0009A60E9B22046FEF7FFFCACE704F571728B
:102BF000002101F0AFF9A2E70A31544F0A30544FD7
:102C000038B5044603681D6C03EB4113D3F8081B69
:102C10000E4A954207D903F5306311F4004F02D0F4
:102C20004FF400429A602046FEF7D6FC074B9D42C7
:102C300002D92369012B01D0002038BD04F571723F
:102C40000121206801F086F9F6E700BF0A30544FF1
:102C50002DE9F84F04460568284601F035F908B11A
:102C6000BDE8F88F0646206801F0FDF80028F7D08F
:102C7000206801F0F8F810F0020F04D022685369C0
:102C800003F002035361206801F0EDF810F0100F1B
:102C900013D02268936923F0100393612F6A07F021
:102CA0000F08C7F34343022B68D0062B00F0848043
:102CB0002268936943F010039361206801F0D3F810
:102CC00010F4002F40F08A80206801F0CCF810F456
:102CD000802F40F0CC80206801F0C5F80028C0F2B9
:102CE0003681206801F0BFF810F4006F0AD0D5F8E3
:102CF000083813F0010F40F044812268536903F44F
:102D000000635361206801F0AEF810F4805F40F07A
:102D10003C81206801F0A7F810F4005F40F0918139
:102D2000206801F0A0F810F0080F40F0A2812068A0
:102D300001F099F810F4801F40F0A481206801F0A0
:102D400092F810F4001F40F0A781206801F08BF882
:102D500010F0804F40F0AA81206801F084F810F054
:102D6000040F3FF47DAF23685D6815F0040F40F059
:102D7000A681226853682B43536071E747F6F073CE
:102D80001F4295D04FEA171BC8EBC80904EB89090D
:102D9000C7F30A12D9F80812284600F0B3FFCBF3A4
:102DA0000A02D9F808321344C9F80832D9F81432A3
:102DB0001A44C9F814227BE7082204F571712846E9
:102DC00000F0A0FFC7F30A17C8EBC80204EB8202A9
:102DD000D2F814321F44C2F8147269E7206801F077
:102DE00046F80746B04616E005EB48130122C3F843
:102DF000082B41462046FFF789FE1BE005EB4813F0
:102E00000822C3F8082B41462046FFF7F9FE14E0DC
:102E100008F101087F08002F3FF456AF17F0010FAB
:102E2000F6D05FFA88F1206801F031F8814610F0A1
:102E3000010FD9D119F0080FE0D119F0100F04D00B
:102E400005EB48131022C3F8082B19F0200F04D00B
:102E500005EB48132022C3F8082B19F4005FD7D0E4
:102E600005EB48134FF40052C3F8082BD0E7206855
:102E700001F005F80746B04629E051462046FEF726
:102E8000BFFB19F0080F04D005EB48130822C3F864
:102E9000082919F0100F04D005EB48131022C3F8CD
:102EA000082919F0400F04D005EB48134022C3F85D
:102EB000082919F0020F04D005EB48130222C3F8C9
:102EC000082919F0800F3DD108F101087F08002F73
:102ED0003FF401AF17F0010FF6D05FFA88FA5146C0
:102EE000206800F0DDFF814610F0010FC9D008F026
:102EF0000F03012101FA03F2D5F8343823EA020363
:102F0000C5F8343805EB4813C3F8081923698B4218
:102F1000B3D1C8EBC80304EB8303596C9A6C0A4421
:102F20009A64B8F1000FA8D1C8EBC80304EB83037F
:102F30001B6D002BA1D104F571720121206801F0F5
:102F400009F89AE741462046FFF7C0FCBCE7D5F8F0
:102F5000043823F00103C5F8043894F8F433012B46
:102F600008D02046FEF78CFB2268536903F000432B
:102F70005361B6E6002184F8F413204600F045FAC8
:102F8000F2E72046FEF764FBB7E605F500677B68CD
:102F900023F001037B601021206800F021FB20E07A
:102FA00005EB46134FF67F31C3F80819D3F8002913
:102FB00022F40012C3F80029D3F8002942F000627D
:102FC000C3F80029C3F8081BD3F8002B22F4001221
:102FD000C3F8002BD3F8002B42F00062C3F8002B9B
:102FE00001366368B342DBD8FB6943F00113FB6130
:102FF000236BDBB1D7F8843043F00B03C7F8843080
:103000007B6C43F00B037B64D5F8003823F4FE633C
:10301000C5F8003804F57172217C206800F09AFF31
:103020002268536903F48053536172E67B6943F469
:10303000005343F02B037B613B6943F00B033B617F
:10304000E2E7206800F075FF206800F0C7FBE06051
:103050002568FEF7CFFE0146227B284600F042FAA3
:103060002046FEF7DEFA2268536903F400535361E9
:1030700056E62046FEF7CFFA2268536903F00803AC
:10308000536154E600212046FEF706FB226853698F
:1030900003F48013536151E600212046FEF7F6FA4F
:1030A0002268536903F4001353614EE62046FEF78D
:1030B000F9FA2268536903F0804353614CE62046D5
:1030C000FEF7F6FA55E690F8BC33012B0DD010B59B
:1030D0000446012380F8BC3380F83810006800F003
:1030E00096FE002084F8BC0310BD0220704738B55E
:1030F00005468C4611F0800F29D101F00F0ECEEB62
:10310000CE04A40004F5FC740444211DCEEBCE0EC5
:1031100000EB8E0E00208EF8FD010CF00F0C81F8F4
:1031200000C08A60CB704A780AB1A1F806C0022BB1
:103130001DD095F8BC33012B1CD0012385F8BC337E
:10314000286800F05CFB002085F8BC0338BD01F066
:103150000F00C0EBC0018900383129440431C0EBB5
:10316000C00005EB8000012480F83D40D5E7002336
:103170000B71DEE70220E9E710B504460A4611F0BC
:10318000800F20D101F00F00C0EBC0039B0003F5BE
:10319000FC732344191DC0EBC00004EB8000002326
:1031A00080F8FD3102F00F020A7094F8BC33012B55
:1031B00019D0012384F8BC33206800F06FFB002095
:1031C00084F8BC0310BD01F00F00C0EBC0039B00EE
:1031D00038332344191DC0EBC00004EB80000123E9
:1031E00080F83D30DEE70220ECE710B501F00F0477
:1031F000C4EBC401890001F5FC7101440431C4EB46
:10320000C40C00EB8C0CCCF80822CCF81032002354
:10321000CCF814328CF8FD318CF8FC410369012B99
:1032200006D064B9DAB2006800F0A8FB002010BD37
:10323000C4EBC40C00EB8C0CCCF80C22F1E7DAB236
:10324000006800F043FCF1E701F00F01C1EBC101A0
:1032500000EB8101D1F81402704710B501F00F04A2
:10326000C4EBC4018900383101440431C4EBC40CFF
:1032700000EB8C0CCCF84820CCF850300023CCF874
:10328000543001238CF83D308CF83C400369012B0D
:1032900006D064B9DAB2006800F070FB002010BDFF
:1032A000C4EBC40C00EB8C0CCCF84C20F1E7DAB288
:1032B000006800F00BFCF1E738B501F00F0542683B
:1032C000954239D804460B4611F0800F1FD1C1EB4F
:1032D000C101890001F5FC7101440431C3EBC30352
:1032E00000EB8303002283F8FD2101238B700D7016
:1032F00094F8BC33012B21D0012384F8BC3320681F
:1033000000F02AFD8DB1002084F8BC0338BDC5EB68
:10331000C5018900383101440431C5EBC50300EB18
:103320008303012283F83D20DFE704F57172217CDD
:10333000206800F00FFEE6E70120E7E70220E5E75E
:1033400001F00F034268934231D810B5044611F0E2
:10335000800F1ED1C3EBC301890001F5FC7101444C
:103360000431C3EBC30200EB8202002082F8FD01AE
:1033700000228A700B7094F8BC33012B19D0012302
:1033800084F8BC33206800F014FD002084F8BC03EE
:1033900010BDC3EBC3018900383101440431C3EBD4
:1033A000C30200EB8202012082F83D00E0E7012029
:1033B00070470220ECE710B40468606A31B940EA53
:1033C0000240A06200205DF8044B70478C46A36A5F
:1033D00000EB1340002308E003F1400104EB8101FE
:1033E000496800EB11400133DBB20CF1FF318B4235
:1033F000F2D340EA02400CF13F0104EB8101486046
:10340000E0E70368596200207047704782B00023EC
:103410000193019B013301930E4A934214D803692F
:10342000002BF6DA00230193036943F001030361E3
:10343000019B01330193074A934208D8036913F0B3
:10344000010FF5D1002000E0032002B070470320F7
:10345000FBE700BF400D030084B010B5044603A88D
:1034600080E80E00089B012B1FD1A36B23F480334F
:10347000A363E36823F4840323F04003E360E36879
:1034800023F44013E3600F9B012B09D02046FFF784
:10349000BDFF069B012B1BD0BDE8104004B0704758
:1034A000E36843F48013E360F0E7E36843F040032C
:1034B000E3602046FFF7AAFF0C9B23B9A36B43F4FC
:1034C0008033A363E5E7A36B23F48033A363E0E7D2
:1034D000A36843F00603A360A36843F02003A3603E
:1034E000DAE70000022A0AD00921C26822F47052E9
:1034F000C260C36843EA8123C36000207047234B46
:103500000B44234A93422FD9224B0B44224A934225
:103510002CD9A1F57403A3F51053204A934227D95F
:10352000A1F18373A3F5E7431D4A934222D31D4BB8
:103530000B441D4A93421FD91C4B0B441C4A934217
:103540001CD31C4B0B441C4A934219D3A1F1B773F3
:10355000A3F55853194A934214D3194B0B44194AF3
:10356000934211D20721C0E70F21BEE70E21BCE72D
:103570000D21BAE70C21B8E70B21B6E70A21B4E721
:103580000921B2E70821B0E70621AEE7405327FF43
:10359000FF340C00401E1BFF3F420F007F4F120004
:1035A00020D6130060B6E5FE5FE3160000D3CEFE22
:1035B00040771B00C05BB3FEC0912100207538002E
:1035C000E05459FEE09C4100836843F001038360AE
:1035D00000207047836823F0010383600020704758
:1035E00082B000230193890141F020010161019B18
:1035F00001330193054A934205D8036913F0200F64
:10360000F5D1002000E0032002B07047400D030018
:1036100082B00023019310230361019B01330193C6
:10362000054A934205D8036913F0100FF5D1002025
:1036300000E0032002B07047400D0300D0F80038CE
:103640001943C0F8001800207047000084B02DE92D
:10365000F041044607A880E80E00002306E003F1CD
:10366000400204EB82020021516001330E2BF6D997
:10367000119F27BBD4F8043843F00203C4F8043880
:10368000A36B43F40013A363A36B23F40023A3638E
:10369000A36B23F48023A3630023C4F8003E04F546
:1036A0000065D4F80038C4F800380C9B012B14D105
:1036B000099B6BB900212046FFF7C0FF11E0A36B07
:1036C00023F40013A363A36B43F40023A363E3E792
:1036D00001212046FFF7B2FF03E003212046FFF758
:1036E000ADFF10212046FFF77BFF804608B14FF069
:1036F00001082046FFF78CFF08B14FF001080023B6
:103700002B616B61EB610AE0C3B94FF00060C2F856
:10371000000900220A614FF67F328A60013307995F
:10372000994210D904EB431202F51061D2F8000956
:103730000028E9DB0020C2F80009EAE74FF09040DA
:10374000C2F80009E5E700230AE0C3B14FF0904C4E
:10375000C2F800CB002202614FF67F328260013353
:10376000994211D904EB431202F53060D2F8006B94
:10377000002EEADB4FF0000CC2F800CBEAE74FF076
:10378000006CC2F800CBE5E72B6923F480732B6152
:103790000023A3616FF0804363610A9B1BB9A36997
:1037A00043F01003A361A2690B4B1343A3610D9B6C
:1037B0001BB1A36943F00803A361012F04D0404665
:1037C000BDE8F04104B07047A36943F0804343F083
:1037D0000403A361F3E700BF00383C80D0F8083849
:1037E00013F0060307D0022B07D0062B01D00F20C1
:1037F000704702207047002070470220704710B5C4
:1038000091F800C04B78012B23D000F5006ED0F862
:103810001C380CF00F040122A24043EA0243C0F816
:103820001C3800EB4C10D0F8003B13F4004F0ED1C5
:10383000D0F8003B8A68C2F30A02C97842EA8142A2
:10384000134343F0805343F40043C0F8003B00208F
:1038500010BDD0F81C280CF00F0E03FA0EF39BB22B
:103860001343C0F81C3800EB4C10D0F8003913F4A7
:10387000004FECD1D0F800398A68C2F30A02C97847
:1038800042EA814242EA8C5C43EA0C0343F08053F3
:1038900043F40043C0F80039D9E7000030B40B7896
:1038A0004A78012A26D000EB4313D3F8002B002AD4
:1038B00052DBD0F83C480A7802F00F024FF0010CBE
:1038C0000CFA02F224EA0242C0F83C28D0F81C2884
:1038D000097801F00F010CFA01FC22EA0C42C0F851
:1038E0001C28D3F8001B234A0A40C3F8002B0020F1
:1038F00030BC704700EB4313D3F80029002A1EDBCD
:10390000D0F83C580A7802F00F02012404FA02F2BF
:1039100092B225EA0202C0F83C28D0F81C280978A7
:1039200001F00F018C40A4B222EA0404C0F81C4844
:10393000D3F80019104A0A40C3F80029D7E7D3F892
:10394000002942F00062C3F80029D3F8002942F0B0
:103950008042C3F80029D3E7D3F8002B42F000627D
:10396000C3F8002BD3F8002B42F08042C3F8002BA1
:103970009FE700BF0078F3EF007833EC70B40B786A
:103980004C78012C27D000EB431000F530631C6904
:10399000E40CE4041C611C6924F0FF5424F4C014FA
:1039A0001C614C690CB18C684C611C6944F40024A6
:1039B0001C611C698D68C5F3120C44EA0C041C617F
:1039C000012A66D0D0F8003B43F00443C0F8003B26
:1039D000002070BC70474C696CBB00EB4314D4F8FA
:1039E000105925F0FF5525F4C015C4F81059D4F826
:1039F000105945F40025C4F81059D4F81059ED0CAD
:103A0000ED04C4F81059012A34D000EB4313D3F865
:103A1000002942F00442C3F800294B69002BD7D09B
:103A2000D0F834380A7802F00F0101228A4013439B
:103A3000C0F83438CCE700EB431404F51064256972
:103A4000ED0CED042561256925F0FF5525F4C01521
:103A500025618D684E69AE4200D94D61256945F4F6
:103A60000025256125694E69C6F3120C45EA0C054F
:103A70002561C8E70A691AB100EB4311C1F814299E
:103A800000EB4310D0F8002942F00442C0F80029AE
:103A90009EE7CA68002A95D05A6193E710B59DF851
:103AA000084084B903334FEA930E4FF0000C08E04E
:103AB00000EB023303F5805351F8044B1C600CF10A
:103AC000010CF445F4D3002010BD0000F0B583B024
:103AD0000B784C78012C33D000EB431303F5306C9A
:103AE000DCF81040E40CE404CCF81040DCF81040A2
:103AF00024F0FF5424F4C014CCF810404C69002C7E
:103B000040F0CA80DCF810408D68C5F312052C43E4
:103B1000CCF81040DCF8104044F40024CCF81040FD
:103B2000012A00F0D380CA78012A00F0D680D3F8A9
:103B3000002B42F00442C3F8002B002003B0F0BD7C
:103B40004C6984BB00EB4314D4F8105925F0FF55A1
:103B500025F4C015C4F81059D4F8105945F40025BF
:103B6000C4F81059D4F81059ED0CED04C4F81059EC
:103B7000012A4FD000EB4313D3F8004944F004442A
:103B8000C3F80049CC78012C6DD04B69002BD4D000
:103B9000D0F834380A7802F00F0101228A4013432A
:103BA000C0F83438C9E700EB4314D4F81059ED0CD1
:103BB000ED04C4F81059D4F8105925F0FF5525F438
:103BC000C015C4F81059D4F810598E684F6907EB26
:103BD000060C0CF1FF3CBCFBF6FC494E06EACC4C53
:103BE00045EA0C05C4F81059D4F810594E69C6F3CB
:103BF00012063543C4F8105904F51064CD78012D30
:103C0000B6D1256925F0C0452561256945F00055E7
:103C10002561ADE70A691AB100EB4314C4F8142911
:103C2000CA78012A08D000EB4313D3F8002942F0E8
:103C30000442C3F8002980E7D0F8082812F4807FF6
:103C400008D100EB4311D1F8002942F00052C1F82D
:103C50000029E8E700EB4311D1F8002942F0805237
:103C6000C1F80029DFE7D0F8084814F4807F0CD1B0
:103C7000D3F8004944F00054C3F8004900928B8AFD
:103C80000A78C968FFF70AFF57E7D3F8004944F0FC
:103C90008054C3F80049F1E78D682C44013CB4FB23
:103CA000F5F4DCF810501FFA84FE154E06EAC44401
:103CB0002543CCF81050DCF810508C680EFB04F44F
:103CC000C4F312042C43CCF8104029E7CA68002A38
:103CD0003FF429AFCCF8142025E7D0F8082812F4D7
:103CE000807F06D1D3F8002B42F00052C3F8002B9E
:103CF0001DE7D3F8002B42F08052C3F8002B16E7E3
:103D00000000F81F00B583B0844608464FEA920EC3
:103D100002F00302002305E00CF58051096840F829
:103D2000041B01337345F7D39AB10CF5805CDCF8C2
:103D3000003001934FF0000C5FFA8CF3D900019B27
:103D4000CB4000F8013B0CF1010C013A92B2002A81
:103D5000F2D103B05DF804FB0B784A78012A14D045
:103D600000EB4310D0F8002B002A06DB2BB1D0F873
:103D7000003B23F08043C0F8003BD0F8003B43F405
:103D80000013C0F8003B0020704700EB4310D0F850
:103D90000029002A06DB2BB1D0F8003923F080433C
:103DA000C0F80039D0F8003943F40013C0F80039E6
:103DB000E9E70B784A78012A0ED000EB4310D0F8DF
:103DC000003B23F40013C0F8003BCB78023BDBB28E
:103DD000012B15D90020704700EB4310D0F80039B3
:103DE00023F40013C0F80039CB78023BDBB2012B7F
:103DF000F0D8D0F8003943F08053C0F80039E9E733
:103E0000D0F8003B43F08053C0F8003BE2E7D0F825
:103E1000003823F4FE63C0F80038D0F800380901F8
:103E200001F4FE611943C0F8001800207047D0F873
:103E3000003E23F00303C0F8003ED0F8043823F01E
:103E40000203C0F8043800207047D0F8003E23F089
:103E50000303C0F8003ED0F8043843F00203C0F872
:103E60000438002070474269806910407047D0F8DC
:103E7000183800F50060C0691840000C7047D0F891
:103E8000183800F50060C069184080B2704700EB38
:103E90004111D1F8082B00F50060406910407047CF
:103EA00010B4D0F81048D0F8343801F00F02D340E5
:103EB000DB01DBB2234300EB411000F510608068AA
:103EC00018405DF8044B7047406900F001007047EE
:103ED00038B50546C36823F0C043C360012913D039
:103EE00019BBC36843F08043C36000240120FEF780
:103EF000D9FC01342846FFF7E7FF08B1312CF5D98A
:103F0000322C14D0002038BDC36843F00053C36086
:103F100000240120FEF7C6FC01342846FFF7D4FF39
:103F20000128EDD0312CF4D9EAE70120EBE701209C
:103F3000E9E7D0F8003923F4FF6323F00703C0F862
:103F40000039D0F8043843F48073C0F804380020F6
:103F50007047000010B4046C154B9C4203D9D0F894
:103F6000003B002B16DB0024C0F8104BD0F8104BA0
:103F700044F40024C0F8104BD0F8104B44F018045F
:103F8000C0F8104BD0F8104B44F0C044C0F8104BB0
:103F9000012903D000205DF8044B7047C0F8142BB2
:103FA000D0F8003B43F08023C0F8003BF2E700BFAD
:103FB0000A30544F70B40C6850F82430134E1E4031
:103FC0004A688D6842EA0503CA6813430A691343C5
:103FD0004A6913438A691343CA6913430A6A13433C
:103FE0004A6A13438A6A1343CA6A1343CA6B134368
:103FF0000A6B13433343082D04D040F824300020CB
:1040000070BC704743F04003F7E700BF8000F0FF4B
:1040100010B5013250F8223003F0404C0B684C6868
:1040200043EA04138C6843EA0423CC6843EA04435C
:104030000C6904F1FF3E43EA0E534C69A4F1020EF1
:1040400043EA0E6389690B4343EA0C0340F82230CC
:10405000002010BDB3F5804F05D06FF0704340F8DD
:1040600022300020704730B450F82230094C1C40F8
:104070000B684D6843EA05138D6843EA0523CD6854
:1040800043EA054389690B43234340F8223000206B
:1040900030BC70470000F0CF28B370B50E4615460F
:1040A000044690F84930CBB1214651F8080BFFF790
:1040B00081FFA26831462068FFF7AAFF236BA26840
:1040C00029466068FFF7C6FF2268A16852F82130D0
:1040D00043F0010342F82130002070BD80F84830E1
:1040E000FDF70EF8E0E70120704703685A6912F403
:1040F000806F01D1002070476FF480625A61002305
:104100000363202280F83D2080F83E30026C42F0AC
:104110000402026480F83C30012070472DE9F04130
:1041200007460D4690461E4624E0FEF7B5FB069B6B
:10413000C01AB04200D8EEB900233B63202287F8B2
:104140003D2087F83E303A6C42F020023A6487F80E
:104150003C3001201EE03B689C6925EA040C1FFAF4
:104160008CFCBCFA8CFC4FEA5C1CE04511D1B6F12A
:10417000FF3FDAD1C5F30743012BECD13B685B6904
:1041800025EA030C1FFA8CFCBCFA8CFC4FEA5C1C81
:10419000EBE70020BDE8F0812DE9F04105460E4631
:1041A000174698463DE01A6842F400721A602B6880
:1041B0006FF480625A6100232B63202285F83D2032
:1041C00085F83E302A6C42F004022A6485F83C30BF
:1041D000012034E0FEF760FBA0EB0800B84200D8F5
:1041E000FFB900232B63202285F83D2085F83E305F
:1041F0002A6C42F020022A6485F83C3001201EE03F
:104200002B689C6926EA0404A4B2003C18BF012470
:10421000A4B12B685A6912F4806FC4D1B7F1FF3F83
:10422000D8D1C6F30743012BEAD12B685C6926EA93
:104230000404A4B2003C18BF0124E9E70020BDE853
:10424000F0810000F0B583B004460D4616461F46C7
:10425000C36A082B0DD0012B0BD013F5803F08D07B
:10426000036B122B0AD10268136843F48073136046
:1042700004E02268136843F48073136000973346A8
:1042800000224FF001112046FFF748FF80B9236953
:10429000B3F5804F16D1236805F0FE051D613B463E
:1042A000324613492046FFF777FFF8B903B0F0BD57
:1042B00023681B6813F4807F02D04FF400732364DB
:1042C0000320F3E7EB11226803F0060343F0F00349
:1042D00013613B46324607492046FFF75DFF18B998
:1042E0002368EDB21D61DAE70120DFE70120DDE799
:1042F00002000100080001002DE9F04184B00446ED
:104300000D4616461F46C26A01680B6843F4806377
:104310000B60082A0DD0012A0BD012F5803F08D07F
:10432000036B112B0AD10268136843F48073136086
:1043300004E02268136843F48073136000973346E7
:1043400000224FF001112046FFF7E8FE98B92369DB
:10435000B3F5804F19D1236845F00105EDB21D6119
:104360003B4632462A492046FFF716FF00284CD12B
:1043700004B0BDE8F08123681B6813F4807F02D08D
:104380004FF4007323640320F2E74FEAE51808F0C6
:104390000608236848F0F0021A613B4632461D4980
:1043A0002046FFF7F9FE08B10120E1E72368EDB2EE
:1043B0001D613B46324616492046FFF7EDFE08B127
:1043C0000120D5E700220392236859690391996976
:1043D00003910399196841F480711960009733467D
:1043E0004FF001112046FFF799FE20B9226848F0EE
:1043F000F1031361B4E723681B6813F4807F02D0D4
:104400004FF4007323640320B2E70120B0E700BF3C
:10441000020001000800010070B504460D46164672
:1044200023685B6913F0800F1CD12046FFF75DFE07
:10443000D0B9B5F1FF3FF3D0FEF72EFA801BA842AA
:1044400001D8002DECD100232363202284F83D20E5
:1044500084F83E30226C42F02002226484F83C3022
:10446000012000E0002070BD0120FCE770B504468B
:104470000D46164623685B6913F0040F1CD12046D5
:10448000FFF733FED0B9B5F1FF3FF3D0FEF704FAE2
:10449000801BA84201D8002DECD1002323632022E9
:1044A00084F83D2084F83E30226C42F020022264E1
:1044B00084F83C30012000E0002070BD0120FCE7C2
:1044C00070B505460C4616462B68596911F0400F29
:1044D00029D1596911F0100F15D1FEF7DDF9801BB4
:1044E000A04201D8002CEFD100232B63202285F8B5
:1044F0003D2085F83E302A6C42F020022A6485F87F
:104500003C30012070BD6FF010025A6100232B6314
:10451000202285F83D2085F83E302A6C2A6485F8F3
:104520003C300120EEE70020ECE70000002800F01E
:10453000CC8070B5044690F83D30002B77D0242312
:1045400084F83D302268136823F001031360226869
:10455000136843F4004313602268136823F4004394
:104560001360FDF74DFC62685A4B9A4264D85A4B6F
:1045700098428CBF00230123002B40F0A8805749AC
:10458000A1FB00318B0C25686A6822F03F0242EAE9
:1045900091426A6021680A6A22F03F0266684D4DC6
:1045A000AE424FD8013313430B622168CA6922F42B
:1045B0004F4222F0FF026668464B9E424CD8431E93
:1045C0007600B3FBF6F3013340F6FC70034278D07B
:1045D000C3F30B031343CB6121680B6823F0C003C3
:1045E000E269206A024313430B6021688B6823F45D
:1045F000034323F0FF032269E068024313438B6007
:104600002168CB6823F0FF036269A069024313436A
:10461000CB602268136843F001031360002020641C
:10462000202384F83D30206384F83E0070BD80F87C
:104630003C30FCF787FD82E7294B98428CBF002372
:10464000012399E74FF4967505FB03F3254DA5FB70
:1046500003539B090133A6E7A368BBB9451E06EBCC
:10466000460CB5FBFCF50135C5F30B05B5FA85F530
:104670006D0945BBC3B9013806EB4603B0FBF3F344
:104680000133C3F30B0343F40043A3E7451E06EBDA
:10469000860C0CEB8C0CB5FBFCF50135C5F30B055A
:1046A000B5FA85F56D09E4E7013806EB860303EBFF
:1046B0008303B0FBF3F30133C3F30B0343F4404331
:1046C00088E7042386E7012384E70120704701205F
:1046D000ACE700BFA08601007F841E0083DE1B4381
:1046E000FF083D00D34D62102DE9F04385B004462C
:1046F0000F46914698460C9EFEF7CEF8054694F874
:104700003D00C0B2202804D00227384605B0BDE8DD
:10471000F0830095192301224F492046FFF7FEFC44
:10472000002840F0928094F83C30012B00F08F80FC
:10473000012384F83C3023681A6812F0010F03D17A
:104740001A6842F001021A602268136823F40063B9
:104750001360212384F83D30102384F83E30002379
:104760002364C4F82490A4F82A80638D23853B4BEE
:10477000E3622B46324639462046FFF763FD074683
:10478000002866D10023039323685A6903929B692A
:104790000393039B11E0236C042B01D00127B4E7A2
:1047A0002268136843F400731360F7E72A46314622
:1047B0002046FFF75BFE00282ED1238D002B36D03C
:1047C0002A4631462046FFF727FE0028E3D1626AD9
:1047D000236812781A61606A431C6362618D89B232
:1047E000013989B26185238D013B9BB22385226803
:1047F000516911F0040FD9D0002BD7D04378136141
:10480000636A01336362638D9BB2013B9BB2638534
:10481000238D013B2385C9E7236C042B01D001279D
:1048200073E72268136843F400731360F7E72268A4
:10483000136843F400731360202384F83D30002391
:1048400084F83E3084F83C305FE702275DE70227BA
:104850005BE7012759E700BF020010000000FFFFDF
:104860002DE9F04387B004460F46914698460E9EC8
:10487000FEF712F8054694F83D00C0B2202804D097
:104880000227384607B0BDE8F083009519230122BE
:1048900089492046FFF742FC002840F0458194F802
:1048A0003C30012B00F04281012384F83C30236826
:1048B0001A6812F0010F03D11A6842F001021A605F
:1048C0002268136823F400631360222384F83D30C8
:1048D000102384F83E3000232364C4F82490A4F805
:1048E0002A80638D2385754BE3622B463246394619
:1048F0002046FFF701FD0746002840F01981238D6F
:104900005BB9029323685A6902929A690292029AE9
:104910001A6842F400721A607AE0012B0FD0022B61
:104920001FD02268136843F480631360002305934B
:1049300023685A6905929B690593059B68E0226884
:10494000136823F4806313600023039323685A6978
:1049500003929A690392039A1A6842F400721A60E9
:1049600056E02268136823F480631360226813689A
:1049700043F4006313600023049323685A6904928C
:104980009B690493049B43E02A4631462046FFF787
:1049900097FD002840F0CE8023681A69636A1A7078
:1049A000636A01336362238D013B2385638D9BB270
:1049B000013B9BB263852BE00095334600224049C2
:1049C0002046FFF7ABFB002840F0B6802268136852
:1049D00043F40073136023681A69636A1A70626A89
:1049E000531C6362238D013B2385638D9BB2013B86
:1049F0009BB2638523681B695370636A01336362EA
:104A0000238D013B2385638D9BB2013B9BB2638564
:104A1000218D00297FD0032954D80129B4D002293F
:104A2000CAD000953346002225492046FFF776FB81
:104A3000002840F083802268136823F480631360A9
:104A400023681A69636A1A70636A01336362238D8B
:104A5000013B2385618D89B2013989B26185009559
:104A60003346002216492046FFF758FB002867D13D
:104A70002268136843F40073136023681A69636A39
:104A80001A70626A531C6362238D013B2385638D18
:104A90009BB2013B9BB2638523681B695370636AB9
:104AA00001336362238D013B2385638D9BB2013B00
:104AB0009BB26385ACE700BF020010000000FFFF5F
:104AC000040001002A4631462046FFF7F9FC002881
:104AD00038D123681A69636A1A70626A531C636268
:104AE000238D013B2385638D9BB2013B9BB2638584
:104AF0002368596911F0040F8AD01B695370636AE7
:104B000001336362238D013B2385638D9BB2013B9F
:104B10009BB263857CE7202384F83D30002384F832
:104B20003E3084F83C30ACE60227AAE60227A8E62D
:104B30000127A6E60127A4E60127A2E60127A0E6B1
:104B400001279EE601279CE6054BD3F8882042F416
:104B50007002C3F888204FF000629A60704700BF6F
:104B600000ED00E098B108B503460020C3F8B80294
:104B7000C3F8C002C3F8CC0209B1C3F8B4120121D2
:104B800083F89C121A701846FCF798FD08BD0320A4
:104B9000704710B582B00023ADF8063061B104460D
:104BA000C0F8B812CB6A4BB10DF106009847C4F8B3
:104BB000CC02002002B010BD0320FBE70020F9E783
:104BC00008B5FCF7D6FD08BD08B5D0F8B83213B16A
:104BD0001B68984708BD0320FCE708B5D0F8B83239
:104BE0000BB15B689847002008BD38B5044600F259
:104BF000AA25284600F065F90123C4F89432B4F8D8
:104C0000B032C4F8983294F8AA1201F01F03012BB5
:104C10000DD0022B10D02BB101F080012046FCF703
:104C2000C3FD03E02946204600F009FB38BD2946B4
:104C3000204600F03CFBF9E72946204600F06BFBDC
:104C4000F4E738B504460D4641BB1346D0F894222C
:104C5000032A01D0084638BDD0F85C11D0F8602195
:104C6000914209D890F89C32DBB2032B0FD020463A
:104C700000F090FC2846EEE7891AC0F85C118A42E1
:104C800028BF0A46194600F07DFC2846E3E7D0F825
:104C9000B8321B69002BEAD09847E8E790F89C32BD
:104CA000DBB2032B01D00020D5E7D0F8B8329B69E6
:104CB0000BB19847CFE70020CDE738B504460D4645
:104CC00000294AD11346D0F89422022A05D094F83C
:104CD000A032012B3CD0284638BDC269016A8A4205
:104CE0000ED88A4218D094F89C32DBB2032B27D01E
:104CF00080212046FCF758FD204600F056FCE6E7F0
:104D0000521AC261194600F026FC00231A461946C1
:104D10002046FCF769FDDAE783699942E3D8D0F8C9
:104D200098229342DFD20022114600F014FC0021A9
:104D3000C4F898120B460A462046FCF755FDC6E714
:104D4000D4F8B832DB68002BD2D020469847CFE7A2
:104D5000002384F8A0322846BEE790F89C32DBB2EC
:104D6000032B01D00020B7E7D0F8B8325B690BB154
:104D70009847B1E70020AFE7012380F89C32002379
:104D8000C0F894324360C0F8A432D0F8B832F3B11E
:104D900070B50446D0F8BC221AB15B680BB1002193
:104DA00098474023002211462046FCF7EAFC0126E2
:104DB000A4F864614025C4F860512B46002280218C
:104DC0002046FCF7DEFCA6842562002070BD03208F
:104DD000704701740020704790F89C32DBB280F875
:104DE0009D32042380F89C320020704790F89C325A
:104DF000DBB2042B01D00020704790F89D32DBB26B
:104E000080F89C32F7E7D0F8B82262B108B590F884
:104E10009C32DBB2032B01D0002008BDD36923B143
:104E200098470020F9E7032070470020F5E7D0F805
:104E3000B82262B108B590F89C32DBB2032B01D0E6
:104E4000002008BD136A23B198470020F9E703202A
:104E500070470020F5E7D0F8B82262B108B590F8A5
:104E60009C32DBB2032B01D0002008BD536A23B172
:104E700098470020F9E7032070470020F5E700205D
:104E8000704708B5012380F89C32D0F8B83213B1CE
:104E90005B6801799847002008BD0346002002E0C6
:104EA0000130C0B201331A78002AF9D1704708B531
:104EB0004B88012B00D008BDC0F8A43200F06AFB7B
:104EC000F9E70B7803704B7843708B78CA7843EA24
:104ED000022343800B794A7943EA022383808B794A
:104EE000CA7943EA0223C380704710B50446802183
:104EF000FCF75AFC00212046FCF756FC10BD30B5EB
:104F000083B004460D460023ADF806304A88130AE4
:104F1000013B062B00F2AB80DFE803F0041F33A94E
:104F2000A98D9A00D0F8B4321B680DF10601007CFF
:104F30009847EA88002A00F0A380BDF80630002BCD
:104F400000F099809A4228BF1A46ADF80620014623
:104F5000204600F0F3FA03B030BD037C43B9D0F82B
:104F6000B8329B6A0DF10600984702234370E0E7D0
:104F7000D0F8B832DB6A0DF106009847022343707F
:104F8000D7E7D2B2052A52D8DFE802F003101D2A73
:104F90003744D0F8B4325B6823B10DF10601007CD0
:104FA0009847C6E72946FFF7A0FFD4E7D0F8B43208
:104FB0009B6823B10DF10601007C9847B9E72946AB
:104FC000FFF793FFC7E7D0F8B432DB6823B10DF1E8
:104FD0000601007C9847ACE72946FFF786FFBAE751
:104FE000D0F8B4321B6923B10DF10601007C98475B
:104FF0009FE72946FFF779FFADE7D0F8B4325B6948
:1050000023B10DF10601007C984792E72946FFF78E
:105010006CFFA0E7D0F8B4329B6923B10DF1060113
:10502000007C984785E72946FFF75FFF93E729460D
:10503000FFF75BFF8FE7037C33B9D0F8B8325B6BC7
:105040000DF10600984774E72946FFF74EFF82E707
:10505000037C43B9D0F8B8321B6B0DF106009847BA
:105060000723437065E72946FFF73FFF73E72946AB
:10507000FFF73BFF6FE729462046FFF736FF6AE759
:10508000204600F087FA66E738B504468B88FBB9FE
:10509000CB88EBB94B887F2B1AD803F07F0590F8AB
:1050A0009C32DBB2032B0CD080F89E522946FCF7D1
:1050B0008BFB204600F06EFA35B1022384F89C3257
:1050C00009E0FFF712FF06E0012384F89C3202E0BA
:1050D0002046FFF70AFF38BD70B504460E468D78AE
:1050E0002E4B1D70012D10D890F89C32DBB2022B94
:1050F0000FD0032B23D0FFF7F8FE284B197820465A
:10510000FFF76BFD0325284670BDFFF7EEFE032574
:10511000F9E78DB145602946FFF756FD054620B1F8
:1051200031462046FFF7E1FEEDE7204600F032FA77
:10513000032384F89C32E6E700F02CFAE3E7CDB1D4
:1051400041688D4225D0C9B2FFF747FD134B19784E
:1051500061602046FFF738FD0546B0B13146204674
:10516000FFF7C3FE21792046FFF737FD022384F8BD
:105170009C32C8E7022380F89C3245602946FFF73D
:105180002CFD204600F006FABDE7204600F002FAAA
:10519000B9E700F0FFF90025B5E700BF186B002064
:1051A00008B5CB88012B0BD190F89C32DBB2022BD7
:1051B00009D9032B09D10122011D00F0BFF901E03B
:1051C000FFF793FE08BD5BB213B9FFF78EFEF9E758
:1051D0000146002341F8083F012200F0AFF9F1E752
:1051E00008B590F89C32013B022B12D8CB88022BD9
:1051F0000CD10123C360D0F8A4320BB10323C360E8
:10520000022200F10C0100F099F908BDFFF76DFED4
:10521000FBE7FFF76AFEF8E708B590F89C32013B20
:10522000022B09D84B88012B00D008BD0023C0F801
:10523000A43200F0AFF9F8E7FFF757FEF5E738B50D
:105240000C7804F06004202C06D0402C04D054B11B
:10525000FFF74BFE002404E0D0F8B8329B68984773
:105260000446204638BD4D78092D1DD8DFE805F0ED
:1052700012191C161C08051C0F0BFFF740FEF0E767
:10528000FFF702FFEDE7FFF727FF0446E9E7FFF727
:1052900087FFE6E7FFF7A4FF2C46E2E7FFF707FEEC
:1052A000DFE7FFF7B9FFDCE7FFF71FFED9E770B5CF
:1052B00005460C460B7803F06003202B07D0402BEB
:1052C00005D023B1FFF711FE0026304670BD95F8DA
:1052D0009C32013B022B18D82379012B0FD8D5F82B
:1052E000B8329B682146284698470646E388002B3B
:1052F000EBD10028E9D1284600F04CF9E5E721463A
:105300002846FFF7F2FD0026DFE721462846FFF793
:10531000ECFD0026D9E7F8B506460D468B880C78DB
:1053200004F06004202C08D0D9B2402C05D06CB118
:105330002946FFF7DAFD002406E0D6F8B8329B686C
:1053400029463046984704462046F8BD6F78012F1D
:105350002FD0032F05D0002F59D02946FFF7C5FDC8
:10536000F2E790F89C32DBB2022B05D0032B12D06F
:105370002946FFF7BAFDE7E709B1802904D129469C
:105380003046FFF7B2FDDFE7FCF70EFA802130462A
:10539000FCF70AFAD8E76B8823B919B1802901D044
:1053A000EB881BB1304600F0F5F8CDE7FCF7FCF9CF
:1053B000F8E790F89C32DBB2022B05D0032B12D019
:1053C0002946FFF792FDBFE709B1802904D129469C
:1053D0003046FFF78AFDB7E7FCF7E6F98021304653
:1053E000FCF7E2F9B0E76B88002BADD111F07F0F2D
:1053F0000AD1304600F0CEF8D6F8B8329B6829467C
:105400003046984704469FE7FCF7D6F9F1E790F855
:105410009C22D2B2022A06D0032A29D02946FFF7BD
:1054200064FD3C4690E709B1802913D113F0800F49
:1054300015D101F07F0101EB8101890001F5A8710F
:105440003144043100230B600222304600F076F82C
:105450003C4679E72946FFF748FD3C4674E701F0F2
:105460007F0101EB81018900103131440431E9E70A
:105470005BB2002B1FDB01F00F0202EB820200EB9C
:105480008202B2F8642122B3002B27DB01F07F03F4
:1054900003EB83039C0004F5A8743444043409B17D
:1054A000802924D10023236002222146304600F0C7
:1054B00045F83C4648E701F00F0202EB820200EBA0
:1054C0008202928C002ADFD12946FFF70EFD3C466E
:1054D0003AE72946FFF709FD3C4635E701F07F032F
:1054E00003EB83039C00103434440434D7E7304684
:1054F000FCF718F910B101232360D5E700232360DE
:10550000D2E7D0B170B50D4616460446FFF7C5FC8C
:10551000431C5B009BB233802B7003236B70022310
:1055200007E0EA5401345A1CD2B20021A9540233D4
:10553000DBB22278002AF4D170BD704708B513465B
:105540000222C0F894228361C3610A460021FCF75D
:1055500043F9002008BD08B513460A460021FCF7B0
:105560003BF9002008BD08B513460322C0F8942279
:10557000C0F85831C0F85C310A460021FCF734F914
:10558000002008BD08B513460A460021FCF72CF997
:10559000002008BD08B50422C0F8942200231A4652
:1055A0001946FCF719F9002008BD08B50522C0F816
:1055B000942200231A461946FCF716F9002008BD6C
:1055C00010B5D0F8BC4284B1D0F8C0327BB194F8A9
:1055D0000002FF280DD09B6894F8012221469847CD
:1055E000FF2384F80032002010BD0320FCE70020D8
:1055F000FAE70020F8E700004323038000487047E3
:10560000700100204323038000487047B40100204C
:105610004323038000487047040200200A230380CC
:1056200000487047F801002038B5D0F8BC5275B179
:105630000446FCF78EF8C5F80C02D4F8C032DB68DB
:1056400005F50371D5F804029847002038BD032002
:10565000FCE710B5D0F8C442D0F8BC3253B301EB2C
:10566000810200EB820292694AB1C1EBC10C04EBEA
:105670008C04646CB2FBF4FC04FB1C2272B10022AB
:10568000C3F81422D0F8C0221469ACB10A4603F55D
:105690000471D3F80802A047002010BD01EB81037C
:1056A00000EB830300249C6123462246FCF794F818
:1056B0002046F2E70320F0E70020EEE7F0B583B0E4
:1056C000D0F8BC6200238DF80730ADF80430002E0E
:1056D0006CD007460C460B7813F060052AD0202DBD
:1056E0005ED1CA88F2B113F0800F0FD0D0F8C0326B
:1056F0009B68314660789847E288072A28BF0722CE
:1057000031463846FFF71AFF00254CE04B7886F803
:1057100000328B7986F80132CA883146FFF723FFC1
:10572000002540E0D0F8C0329B68002248789847B6
:10573000002538E04E780B2E2ED8DFE806F0063430
:105740002D2D2D2D2D2D2D2D152490F89C32DBB2D5
:10575000032B03D0FFF7C9FB032524E0022201A994
:10576000FFF7ECFE35461EE090F89C32DBB2032BCF
:1057700003D0FFF7BAFB032515E001220DF1070165
:10578000FFF7DCFE0FE090F89C32DBB2032B0AD06F
:10579000FFF7ABFB032506E0FFF7A7FB032502E0BD
:1057A000FFF7A3FB0325284603B0F0BD0325FAE766
:1057B00038B504468121FBF7EFFF0025258701213D
:1057C0002046FBF7E9FFA4F8785182212046FBF739
:1057D000E3FFA4F84C50A4F84E50D4F8BC324BB1BF
:1057E000D4F8C0325B689847D4F8BC0226F09AFD22
:1057F000C4F8BC52002038BD70B504464FF40770A1
:1058000026F088FDB8B30646C4F8BC02237CBBBBB7
:105810004FF40073022281212046FBF7B2FF0125DD
:1058200025874FF40073022229462046FBF7A9FF83
:10583000A4F878511023A4F84E30082303228221C3
:105840002046FBF79EFF0123A4F84C30D4F8C03269
:105850001B6898470023C6F81432C6F81832257C16
:1058600015BB4FF40073D6F8042201212046FBF744
:10587000BBFF284670BD0023C4F8BC320225F8E700
:105880004023022281212046FBF77BFF012525874B
:105890004023022229462046FBF773FFA4F87851E3
:1058A0001023A4F84E30C8E74023D6F80422012183
:1058B0002046FBF799FF0025DBE719B1C0F8C012BD
:1058C0000020704703207047D0F8BC322BB1C3F8DA
:1058D0000812C3F810220020704703207047D0F848
:1058E000BC321BB1C3F8041200207047032070477C
:1058F000D0F8BC22A2B108B5D2F814320BB1012005
:1059000008BD0123C2F81432D2F81032C362D2F8B3
:105910001032D2F808228121FBF75EFF0020EFE76A
:105920000320704710B5D0F8BC2292B1047C44B972
:105930004FF40073D2F804220121FBF755FF2046F3
:1059400010BD4023D2F804220121FBF74DFF0024B3
:10595000F5E70324F3E738B50546006806F06CFF69
:105960000446406920B194F8283013F0010F08D1A3
:1059700000226261A26140F26241286806F095F857
:1059800038BD07F030F8F3E708B50022C9B206F0D9
:1059900017FF08BD08B509B203F0BEFC08BD08B585
:1059A00009B203F09BFC08BD08B5034610B12BB14A
:1059B000186908BD1AF0BEFB0346F8E71846F8E779
:1059C00008B5034610B12BB1586908BD1AF0B2FBF7
:1059D0000346F8E71846F8E710B5044606F02CFF32
:1059E00018B10461204603F02AFF10BD38B5044603
:1059F000006806F021FF05461AF09CFBFFF7D4FF74
:105A000068612068FFF7E8FF38BD08B5034610B1AC
:105A10002BB1D86908BD1AF08DFB0346F8E718468C
:105A2000F8E708B5034610B12BB1186A08BD1AF0A3
:105A300081FB0346F8E71846F8E708B5034608B1C6
:105A4000986808BD1AF076FB0346F9E72DE9F041A6
:105A5000A2B005460F4690461E4606F0EDFE0446EF
:105A60001AF068FBFFF7A0FF94F8283013F0010F3D
:105A700017D0A369834214D09BB106F0B4FFA0698C
:105A8000FFF7AAFF0021A0691AF06AFD0022114663
:105A9000A06903F05FFC002240F26241A06906F0B9
:105AA00004F8A561606920B194F8283013F0010F63
:105AB0004BD194F828309DF8A02062F3000384F8BD
:105AC0002830002128461AF04BFD1AF033FBFFF76F
:105AD0006BFF00211AF044FD00221146284603F016
